:100000000C940A020C9432020C9432020C943202C8
:100010000C9432020C9432020C9432020C94320290
:100020000C9432020C9432020C949B110C94181212
:100030000C9432020C9432020C9432020C94320270
:100040000C9432020C9432020C9432020C94320260
:100050000C9432020C9432020C9432020C94511122
:100060000C9432020C9470140C944A140C943202C6
:100070000C9432020C9432020C9432020C94320230
:100080000C9432020C9432020C9432020C94320220
:100090000C94A2140C9432020C9432020C9432028E
:1000A0000C9432020C9432020C9432023F202D2028
:1000B00048656C700062202D20546F756368206D58
:1000C0006520210061202D2042696E636174003932
:1000D000202D204A6F756F6E7320C3A02073686156
:1000E000210038202D20456E20736F727469652CB5
:1000F000206C27756E696F6E2066616974206C6173
:1001000020666F7263652E0037202D204C652073AA
:10011000656E73206465206C61207669652E0036FB
:10012000202D20556E6520686973746F6972652093
:100130006427C3A9636F7574652E0035202D204F89
:100140007569204D61C3AE74726520210034202D85
:1001500020417070656C206D6F69206D61C3AE7455
:10016000726520210033202D204D6F736920657446
:10017000204D69736F20736F6E74207375722075D4
:100180006E20626174656175202E2E2E0032202D46
:10019000204A652063726F697320717565206E6FE8
:1001A00075732061766F6E73206166666169726532
:1001B00020C3A020756E2073657269616C206B6925
:1001C0006C6C6572210031202D20446F6E6E6520AD
:1001D0006D6F69206C6520666C6167202100080BDB
:1001E00000020202000009040000010202000005F2
:1001F000240010010524010101042402060524063F
:1002000000010705810310004009040100020A00F3
:1002100000000705020240000007058302400000BD
:100220000403090412010002EF0201404123368059
:1002300000010102030141726475696E6F204C4C2C
:10024000430041726475696E6F204C656F6E617218
:10025000646F004D6178696D756D206E756D6265B6
:1002600072206F66206368617261637465727320C7
:100270006973207265616368656420696E2061201E
:10028000636F6D6D616E642074657874004D656E8A
:1002900075203A00202D3E2063616E63656C6C61B1
:1002A00074696F6E202100202D3E2063616E6365AE
:1002B0006C6C6174696F6E202100202D3E20746F7C
:1002C0006F206D616E7920617267756D656E7473F4
:1002D000202120286F6E65206368617261637465F8
:1002E00072206F6E6C79290000202D3E204E6F2009
:1002F000636F6D6D616E6420636F6465206D617402
:100300006368696E67202100202D3E20746F6F2086
:100310006D616E7920617267756D656E74732021F1
:1003200020286F6E65206368617261637465722056
:100330006F6E6C792900070605040100080A0B0C92
:100340000D0900000000240027002A002D003000C5
:1003500000000000250028002B002E0031000000C6
:1003600000002300260029002C002F0004040404B0
:10037000040304050202020204030202020206064A
:100380000606060604040202020404040802011020
:1003900040804010204080408008020401804020BE
:1003A00010020110801020404020000000020009CF
:1003B0000F0000030401000C00000000000000001A
:1003C000000000000000000000496E746572666164
:1003D0006365206D697374616B652077697468204B
:1003E0006C6962726172792053657269616C5365E0
:1003F0007269616C4D656E75436D64004E6F204D82
:10040000656E7520696E206D656D6F7279003E00B6
:100410000000C11511241FBECFEFDAE0DEBFCDBF53
:100420002AE0ACE5B8E001C01D92AD33B207E1F7B8
:1004300018E0A0E0B1E0E8E4F4E302C005900D921A
:10044000AC35B107D9F712E0CAE0D2E004C0219779
:10045000FE010E941218C930D107C9F70E94171671
:100460000C94221A0C940000FC0180913A09882314
:1004700011F13FB7F89482E08093E9002091F200F7
:10048000822F90E01816190614F481E090E088237A
:1004900039F0289844E6409339094091F1004083AF
:1004A000222339F02091F200211103C02BE6209382
:1004B000E8003FBF08958FEF9FEF089583E080939A
:1004C000E9008091F200882319F08AE38093E80024
:1004D00008952FB7F89483E08093E9009091E800A5
:1004E000892F807295FF04C09091F20080E4891BEF
:1004F0002FBF089580912D0981110DC082E0809356
:10050000290984E080932A0910922C0910922B0962
:1005100081E080932D0989E299E0089581508F3020
:1005200008F047C0E82FF0E0E856FD4F0C94121891
:10053000B502B902A702AD02B102D902D902D902AD
:10054000BC02C202C602CA02D002D902D402809101
:1005500080008F77809380000895809180008F7D48
:10056000F9CF80918000877FF5CF84B58F7784BDE8
:10057000089584B58F7DFBCF809190008F77809315
:1005800090000895809190008F7DF9CF8091900028
:10059000877FF5CF8091C0008F778093C00008954A
:1005A0008091C0008F7DF9CF8091C200877F8093BA
:1005B000C2000895CF93DF93282F30E0F901E6556C
:1005C000FC4F8491F901E557FC4FD491F901E459AE
:1005D000FC4FC491CC23A1F081110E948E02EC2F1C
:1005E000F0E0EE0FFF1FE25AFC4FA591B491EC91A1
:1005F000ED2381E090E009F480E0DF91CF91089550
:1006000080E090E0FACF1F93CF93DF93282F30E064
:10061000F901E655FC4F8491F901E557FC4FD4915F
:10062000F901E459FC4FC491CC23A9F0162F811194
:100630000E948E02EC2FF0E0EE0FFF1FE05BFC4FFC
:10064000A591B4918FB7F894EC91111108C0D09591
:10065000DE23DC938FBFDF91CF911F910895DE2BB6
:10066000F8CFCF93DF9390E0FC01E557FC4F249146
:1006700084599C4FFC0184918823D1F090E0880F2D
:10068000991FFC01EE5BFC4FA591B491FC01E05B6E
:10069000FC4FC591D49161110EC09FB7F8948C9115
:1006A000E22FE0958E238C932881E223E8839FBF7D
:1006B000DF91CF9108958FB7F894EC91E22BEC93F2
:1006C0008FBFF6CF823108F08251E82FF0E0EA5C6C
:1006D000FC4FE49190917B008E2F880F880F8072E1
:1006E0009F7D892B80937B00E770E064E0937C0022
:1006F00080917A00806480937A0080917A0086FDF0
:10070000FCCF809178009091790008953FB7F894DC
:100710008091250990912609A0912709B091280977
:1007200026B5A89B05C02F3F19F00196A11DB11D4C
:100730003FBFBA2FA92F982F8827BC01CD01620F88
:10074000711D811D911D42E0660F771F881F991F43
:100750004A95D1F708958F929F92AF92BF92CF9210
:10076000DF92EF92FF924B015C010E9486036B01C6
:100770007C010E9486036C197D098E099F09683EE1
:10078000734081059105A8F321E0821A9108A10820
:10079000B10888EEC80E83E0D81EE11CF11C81145C
:1007A0009104A104B10429F7FF90EF90DF90CF905E
:1007B000BF90AF909F908F90089540911D095091E8
:1007C0001E0920911B0930911C0942175307B4F4EC
:1007D0009091E8009570E1F39091E80092FD19C0C6
:1007E0008093F10080911D0990911E0901968F73ED
:1007F0009927892B19F48EEF8093E80080911D09C9
:1008000090911E09019690931E0980931D0981E025
:10081000089580E00895EF92FF920F931F93CF9376
:10082000DF93F82E192FE62E042F81E0860F880F14
:100830000E94DD0383E00E94DD03CF2DD12FEC0E5B
:10084000FD2EF11CCE15DF05B9F007FF13C0FE0128
:1008500084910E94DD03182F80E00E94DD03812334
:1008600021968111EFCFDF91CF911F910F91FF90D2
:10087000EF9008958881EDCF81E0F5CFDF92EF9280
:10088000FF920F931F93CF93DF93D82E8A01EB0132
:100890007B01E40EF51ECE15DF0559F0D7FE12C020
:1008A000FE0184910E94DD0321968111F4CF0FEFA8
:1008B0001FEFC801DF91CF911F910F91FF90EF9033
:1008C000DF9008958881EECF0F931F93CF93DF932E
:1008D0001F92CDB7DEB782E0898342E450E06EED2F
:1008E00071E080E80E943E040E947A02DC011296C8
:1008F0000D911C910115110589F0D801ED91FC9124
:100900000280F381E02DBE016F5F7F4FC801099522
:1009100097FD04C0F80100851185ECCF89810F9007
:10092000DF91CF911F910F910895615030F0209188
:10093000F100FC0120830196F8CF289884E680938B
:1009400039090895DC01ED91FC910190F081E02DD1
:100950000994AF92BF92CF92DF92EF92FF920F93E2
:100960001F93CF93DF936C017B018B01040F151F45
:10097000EB015E01AE18BF08C017D10759F06991AD
:10098000D601ED91FC910190F081E02DC601099511
:10099000892B79F7C501DF91CF911F910F91FF90BE
:1009A000EF90DF90CF90BF90AF900895FC01538DF2
:1009B000448D252F30E0842F90E0821B930B541739
:1009C00010F0CF96089501970895FC01918D828DC6
:1009D000981761F0A28DAE0FBF2FB11D5D968C915F
:1009E000928D9F5F9F73928F90E008958FEF9FEF9E
:1009F0000895FC01918D828D981731F0828DE80F5A
:100A0000F11D858D90E008958FEF9FEF0895FC0113
:100A1000918D228D892F90E0805C9F4F821B9109E0
:100A20008F73992708958BE399E00E94070521E0D1
:100A3000892B09F420E0822F089580E090E0892B33
:100A400029F00E94130581110C9400000895FC0107
:100A5000A48DA80FB92FB11DA35ABF4F2C91848D1F
:100A600090E001968F739927848FA689B7892C937C
:100A7000A089B1898C9182748C93938D848D981305
:100A800006C00288F389E02D80818F7D80830895E0
:100A9000EF92FF920F931F93CF93DF93EC0181E0CE
:100AA000888F9B8D8C8D981319C0E889F989808176
:100AB00085FF14C09FB7F894EE89FF896083E889A9
:100AC000F9898081827480839FBF81E090E0DF910B
:100AD000CF911F910F91FF90EF900895F62E0B8DFF
:100AE00010E00F5F1F4F0F731127E02E8C8D8E11BA
:100AF0000CC00FB607FCFACFE889F989808185FF21
:100B0000F5CFCE010E942705F1CFEB8DEC0FFD2F25
:100B1000F11DE35AFF4FF0829FB7F8940B8FEA89DB
:100B2000FB8980818062CFCFCF93DF93EC01888DEA
:100B30008823B9F0AA89BB89E889F9898C9185FD58
:100B400003C0808186FD0DC00FB607FCF7CF8C91E6
:100B500085FFF2CF808185FFEDCFCE010E94270572
:100B6000E9CFDF91CF9108958F929F92AF92BF927C
:100B7000CF92DF92EF92FF920F931F93CF93DF9369
:100B80006C017B018A0180910B01882309F45CC010
:100B900080913A09882309F457C08091210980FF88
:100BA00005C08091E00082608093E000E801B12CF4
:100BB0008AEFA82E93E0892E2AE3922E209711F433
:100BC000BB20D9F10E94690281110AC0AA94AA200F
:100BD000D9F161E070E080E090E00E94AB03EECFDD
:100BE0008C171D0611F00CF08C2F9FB7F894809293
:100BF000E9002091E80025FD02C09FBFDFCF282F2C
:100C000030E0C21BD30BF701815020F0419140939B
:100C1000F100FACFE20EF31EBB2021F09092E80023
:100C2000B12CEBCF8091E80085FDE7CF9092E800F2
:100C3000BB24B394209709F3F3CF5D9884E68093A7
:100C40002009101611063CF081E090E0F601938334
:100C5000828310E000E0C801DF91CF911F910F91D6
:100C6000FF90EF90DF90CF90BF90AF909F908F90CC
:100C70000895CF93DF931F92CDB7DEB76983DC0170
:100C8000ED91FC910280F381E02D41E050E0BE0146
:100C90006F5F7F4F09950F90DF91CF9108950F936C
:100CA0001F93CF93DF938C01D0E0C0E0F801EC0FED
:100CB000FD1F6491662341F088ED99E00E9439069A
:100CC000892B11F02196F2CFCE01DF91CF911F91A8
:100CD0000F9108950C945E020E94690290E00895BD
:100CE000CF93DF931F92CDB7DEB7FC018485958546
:100CF00097FD08C02FEF3FEF358724870F90DF91D6
:100D0000CF910895CE0101960E943402019719F403
:100D1000898190E0F3CF8FEF9FEFF0CF2FB7F8945A
:100D20008091350990913609A0913709B091380921
:100D30002FBF8093E0099093E109A093E209B0935B
:100D4000E30988ED99E00E94700697FF26C02FB74F
:100D5000F8948091350990913609A0913709B091A6
:100D600038092FBF4091E0095091E1096091E209F3
:100D70007091E309841B950BA60BB70B4091DC091E
:100D80005091DD096091DE097091DF0984179507A4
:100D9000A607B707B0F28FEF9FEF08950F931F9349
:100DA000CF93DF931F92CDB7DEB78C01FC01848512
:100DB000958597FF0BC0CE0101960E9434020197E2
:100DC00071F4898190E0F80195878487F801848522
:100DD00095850F90DF91CF911F910F9108958FEF1F
:100DE0009FEFF1CFFC018485958597FD0BC09FB7E0
:100DF000F89482E08093E9008091F2009FBF90E038
:100E0000019608959FB7F89482E08093E90080915D
:100E1000F2009FBF90E008952091CF08260F33275E
:100E2000331F21323105ECF42091F508FC0190E0EC
:100E300080E0243069F082E00895A091CF082191EC
:100E4000AC014355574FA40FB52FB11D2C930196FC
:100E5000861798F38091CF08680F6093CF0880E0E1
:100E6000089581E00895ECEBF0E080818A7B808337
:100E700060E082E00E94030360E083E00C940303DF
:100E80001092F50881E08093F7081092F60861E06F
:100E900082E00E94030361E083E00E940303E9EB28
:100EA000F0E080818E7F808380818D7F808388E4E5
:100EB0008093B80085E48093BC000895CF93DF93BE
:100EC00091E09093AC08882361F0C091B800D09174
:100ED000BA000E9433070E944007D093BA00C09323
:100EE000B800DF91CF910895089508950895E09195
:100EF000A4088091A308E81730F4F0E0ED57F74F0D
:100F0000808190E008958FEF9FEF08959091A4085D
:100F10008091A3082FEF3FEF981748F4E92FF0E0F6
:100F2000ED57F74F208130E09F5F9093A408C901EF
:100F300008958091A3089091A408891B990B0895A6
:100F4000CF92DF92EF92FF920F931F93CF93DF9395
:100F50007C01CB018A0120918208222389F0EB01D8
:100F60006B01C40ED51ECC15DD0569F06991D70162
:100F7000ED91FC910190F081E02DC7010995F3CF2F
:100F8000642F0E940C07C801DF91CF911F910F9130
:100F9000FF90EF90DF90CF900895CF93DF931F9253
:100FA000CDB7DEB76983209182082223F9F0209122
:100FB000A508203258F021E030E0FC013383228381
:100FC00090E080E00F90DF91CF9108958091A60886
:100FD000E82FF0E0EE59F74F998190838F5F80936F
:100FE000A6088093A50881E090E0ECCF61E0CE01F7
:100FF00001960E940C07F7CF90E080E008959FE9EA
:10100000980F963010F4875508959FEB980F9630FF
:1010100010F48753089580538A3008F080E00895D3
:101020008F708F3051F461E08AE00E94030369E021
:1010300070E080E090E00C94AB038A3041F460E013
:101040000E9403036FE070E080E090E0F4CF853011
:10105000E9F460E08AE00E94030361E070E080E070
:1010600090E00E94AB0361E08AE00E94030361E02C
:1010700070E080E090E00E94AB0360E08AE00E94B4
:10108000030361E070E080E090E0D5CF811109C0FA
:1010900060E08AE00E94030363E070E080E090E09B
:1010A000CACF08951F93CF93DF938BE399E00E94FB
:1010B0009405E0914D09F0914E0980818F7E8083E7
:1010C000E0914D09F0914E098081877F8083E09106
:1010D0004D09F0914E0980818F778083E0914D0911
:1010E000F0914E0980818F7D808380915509809396
:1010F00054099FB7F89480915E08882319F08150B5
:1011000080935E0880915E08811103C08CB58F7B4F
:101110008CBD9FBF0E943307CCEDD3E0188122968F
:1011200060E0812F0E94030360E0812F0E94310361
:1011300083E0CC3FD80791F7DF91CF911F910895BD
:1011400088E48093B8001092A4081092A30810922B
:10115000A6081092A5080E94400784E797E09093A4
:10116000CE088093CD0885E797E09093D2088093CE
:10117000D10884E58093BA0008950F931F93CF930D
:10118000DF93FC01048115810115110539F4FB0180
:101190001082DF91CF911F910F9108954150510915
:1011A0004017510708F48A01EB01FC01608171814D
:1011B000A801CE010E94131AC00FD11F1882E9CFD7
:1011C000FB0101900020E9F73197AF01461B570B57
:1011D000DC01ED91FC910280F381E02D09948F9266
:1011E0009F92AF92BF920F931F93CF93DF93CDB790
:1011F000DEB7A1970FB6F894DEBF0FBECDBF19A220
:10120000423008F44AE08E010F5D1F4F842E912C6E
:10121000B12CA12CA50194010E94F017E62FB90171
:10122000CA01EA3004F5E05DD801EE938D01232B6D
:10123000242B252B79F790E080E0109729F0BD0151
:1012400088ED99E00E94E008A1960FB6F894DEBF01
:101250000FBECDBFDF91CF911F910F91BF90AF9087
:101260009F908F900895E95CDFCFCF92DF92EF924D
:10127000FF92CF93DF936C01990FEE08FF086A305D
:101280007105E1F44AE0F7FE1AC06DE288ED99E0DD
:101290000E94A204EC0166277727CB016C197D0917
:1012A0008E099F094AE00E94EF088C0F9D1FDF9175
:1012B000CF91FF90EF90DF90CF900895462FC70118
:1012C000B601DF91CF91FF90EF90DF90CF900C941B
:1012D000EF0864E574E00C94E008CF93DF930E947C
:1012E0004F06EC0188ED99E00E9469098C0F9D1F63
:1012F000DF91CF910895CF93DF93BC0188ED99E002
:101300000E94E008EC0188ED99E00E9469098C0FC9
:101310009D1FDF91CF9108950F931F93CF93DF937C
:10132000CDB7DEB7C054D1090FB6F894DEBF0FBEFB
:10133000CDBF86E594E00E947B0986E594E00E949B
:101340007B098091360A10E005E0811114C08CEF12
:1013500093E00E946D0989EC93E00E946D09C05CE6
:10136000DF4F0FB6F894DEBF0FBECDBFDF91CF9138
:101370001F910F9108958091360A181780F7E09118
:10138000340AF091350A109FE00DF11D112460819F
:10139000718140E450E0CE0101960E94A717CE0172
:1013A00001960E947B091F5FE6CF9F92AF92BF928A
:1013B000CF92DF92EF92FF920F931F93CF93DF9321
:1013C0000E945208CCEDD3E08881229661E00E9411
:1013D000310383E0CC3FD807B9F788ED99E00E944C
:1013E000690987E594E00E947B090E945E028FE70D
:1013F00094E00E947B0988ED99E00E94F206892B17
:10140000D1F3CCEDD3E08881229661E00E94030302
:1014100093E0CC3ED907B9F762E370E080E090E05A
:101420000E94AB03CCEDD3E08881229660E00E945D
:101430000303E3E0CC3EDE07B9F762E370E080E04F
:1014400090E00E94AB039BE8E92E93E0F92E22E4A2
:10145000922ECC24C394D12CF6EAEF16F3E0FF06CB
:1014600009F43FC0F70101917F0109258CEDA82EF9
:1014700083E0B82ED0E0C0E0002E000C110BF50187
:101480008081F2E0AF0EB11CB6010C2E02C0660FD7
:10149000771F0A94E2F7602371230C2E02C0759522
:1014A00067950A94E2F70E9403032196C830D1059C
:1014B00031F76AE070E080E090E00E94AB03CCED91
:1014C000D3E08881229660E00E940303E3E0CC3EF3
:1014D000DE07B9F76AE070E080E090E00E94AB03BD
:1014E000BBCFDF91CF911F910F91FF90EF90DF90D5
:1014F000CF90BF90AF909F9008950E9452080E9495
:10150000A00888ED99E00E9469098BEA94E00E94A6
:101510007B0986EC94E00E947B0988ED99E00E94AB
:10152000F206892BD1F388ED99E00E94690987EED4
:1015300094E00C947B092F923F924F925F927F929E
:101540008F929F92AF92BF92CF92DF92EF92FF92D3
:101550000F931F93CF93DF930E9452080E94A0081D
:1015600088ED99E00E94690989EF94E00E947B0967
:101570000E945E0285E295E00E947B0988ED99E079
:101580000E94F206892BD1F3C0E6D2E0FF24F39447
:101590008AE2E82E92E4B92E22E0A22E99249A94AF
:1015A00035EE832E45EC742EF0928208E0925F08AF
:1015B0001092A6081092A5086E0110E000E0F60156
:1015C00061916F016B2588E29AE00E94CD070F5F61
:1015D0001F4F0032110599F71091A508113208F03C
:1015E0008CC00E9486031B012C018091F50881119B
:1015F0005FC0A092F508F092F7089092F40810925C
:10160000190910931809A2E6B8E0E8EFF8E01813FA
:1016100092C010921A0980911A09846580931A0960
:101620008091F608813009F08AC01092F6080E9475
:1016300086031B012C0180911A098093BB008091C5
:10164000A8089091A908A091AA08B091AB08892B8D
:101650008A2B8B2B99F00E9486030091A808109189
:10166000A9082091AA083091AB086219730984096E
:1016700095090617170728073907D8F18091BC008C
:1016800083FDD9CF7092BC000E9486031B012C0100
:101690008091F508823009F455C08091F4088F3F9D
:1016A00061F18091F408803241F18091F40825C005
:1016B0008091A8089091A908A091AA08B091AB08C0
:1016C000892B8A2B8B2B09F490CF0E9486032091C3
:1016D000A8083091A9084091AA085091AB08621956
:1016E000730984099509261737074807590708F031
:1016F0007CCF8091A7080E945E071092A6081092E6
:10170000A50810928208A096F3E0C030DF0709F028
:101710004BCFDF91CF911F910F91FF90EF90DF9012
:10172000CF90BF90AF909F908F907F905F904F90A1
:101730003F902F9008959D9191938F5F68CF8092F5
:10174000BC00A2CF8091A8089091A908A091AA08F6
:10175000B091AB08892B8A2B8B2B09F499CF0E946F
:1017600086030091A8081091A9082091AA08309139
:10177000AB0862197309840995090617170728072A
:10178000390708F085CFB5CFCF930E94520861E0AA
:1017900081E10E940303CFB7F89480915E08811124
:1017A00027C0EDE7F3E08491ECE9F3E09491E82FB2
:1017B000F0E0EE0FFF1FEE5BFC4FA591B491EC91B2
:1017C000E92321F461E081E10E94030361E081E10A
:1017D0000E9431038CB580618CBD8CB580648CBD5A
:1017E00061E08FE00E94310361E080E10E943103FB
:1017F00080915E088F5F80935E08CFBF8CB5836059
:101800008CBD8DB58E7F8DBD88ED99E00E946909F4
:101810000E945E0283E595E00E947B0988ED99E0D5
:101820000E94F206892BD1F385E895E00E947B099E
:1018300060E081E10E940303E1E7F1E092E482E0ED
:10184000E036F80749F0819189278EBD00000DB47C
:1018500007FEFDCF8EB5F3CF61E081E1CF910C940F
:1018600003030C94E008CF93DF93CDB7DEB7C054E9
:10187000D1090FB6F894DEBF0FBECDBF80E194E072
:101880000E946D096091370A7091380A40E450E077
:10189000CE0101960E94A717BE016F5F7F4F88EDB2
:1018A00099E00E94310C8EE094E00E944F06C05CEB
:1018B000DF4F0FB6F894DEBF0FBECDBFDF91CF91E3
:1018C00008950E948C090C94330C1F93CF93DF93DF
:1018D0000E94520888ED99E00E94690985E10E9402
:1018E0006203909361088093600880EC95E00E9409
:1018F0007B098FED95E00E947B09809160089091B3
:10190000610845978F3D914070F0CCEFD3E012E431
:1019100084E0C731D80739F16991612788ED99E0F2
:101920000E94A204F5CF85E10E94620390936108B2
:101930008093600861EF75E088ED99E00E94310CBA
:101940006AE070E080916008909161080E9435091A
:1019500088ED99E00E94690968EE73E080E090E00C
:101960000E94AB03CACFDF91CF911F910895AF9230
:10197000BF92CF92DF92EF92FF920F931F93CF937C
:10198000DF930E945208CCEDD3E08881229660E07C
:101990000E94310383E0CC3ED807B9F788ED99E087
:1019A0000E94690980E096E00E947B09D0E0C0E0D7
:1019B00060E276E088ED99E00E94310C8CEDA82E73
:1019C00083E0B82E10E000E0F12CE12CF5018081DD
:1019D000F2E0AF0EB11C0E94DA026C016AE070E026
:1019E0000E9435090E2C02C0CC0CDD1C0A94E2F7D3
:1019F0000C291D298FEFE81AF80A98E0E916F1047E
:101A000029F768E276E088ED99E00E94310C6AE0FF
:101A100070E0C8010E94350988ED99E00E946909CB
:101A200021960A32110511F0D0E0C0E068EE73E0B3
:101A300080E090E00E94AB03C530D10509F0B8CF3B
:101A400082E396E00E947B0969E676E088ED99E002
:101A50000E94310CC3E7D3E012E4E3E0CB38DE07A9
:101A600039F06991612788ED99E00E94A204F5CFD1
:101A700088ED99E0DF91CF911F910F91FF90EF904A
:101A8000DF90CF90BF90AF900C946909EF92FF92D6
:101A90000F931F93CF93DF930E94520861E08AE077
:101AA0000E94310388ED99E00E94690967E776E0BA
:101AB00088ED99E00E94310C6AE070E08AE090E0E5
:101AC0000E9435098BEA96E00E947B09C5E0D0E0D0
:101AD0008FE00E94100880E00E9410082197C1F753
:101AE0008AE00E9410088AE00E94100800E213E0D9
:101AF00083E7E82E83E0F82ED2E4E016F10679F0D1
:101B0000F801C1918F01CD278C2F859585958595FD
:101B100085950E9410088C2F0E941008EECF8AE055
:101B20000E9410088AE00E941008C5E0D0E08FE013
:101B30000E94100880E00E9410082197C1F7DF91F1
:101B4000CF911F910F91FF90EF9008951F93CF9326
:101B5000DF930E945208E0914B09F0914C0982E01A
:101B60008083E0914709F09148091082E09149098A
:101B7000F0914A0983E3808310925309E0914F0961
:101B8000F091500986E08083E0914D09F0914E0973
:101B9000808180618083E0914D09F0914E098081C0
:101BA00088608083E0914D09F0914E0980818068C2
:101BB0008083E0914D09F0914E0980818F7D808373
:101BC00082E10E946203909361088093600883E140
:101BD0000E94620390935D0880935C0888ED99E011
:101BE0000E94690987EB96E00E947B098BEF96E0E3
:101BF0000E947B098091600890916108883E934023
:101C000034F080915C0890915D0845977CF082E10A
:101C10000E946203909361088093600883E10E94B0
:101C2000620390935D0880935C08E4CF0E945E029B
:101C300083E595E00E947B0988ED99E00E94F20619
:101C4000892BD1F38091600890916108893E93407F
:101C5000F4F080915C0890915D084497C4F463E1CE
:101C600077E08BE399E00E94310CC3E6D1E012E407
:101C700081E0C137D80739F0699161278BE399E09A
:101C80000E94A204F5CF8BE399E00E94690982E2E9
:101C900097E0DF91CF911F910C947B091F93CF9315
:101CA000DF930E94520888ED99E00E94690963E180
:101CB00077E088ED99E00E94310CCEE4D1E012E4A7
:101CC00081E0C336D80739F06991612788ED99E042
:101CD0000E94A204F5CF88ED99E0DF91CF911F918A
:101CE0000C946909FC0180819181009711F00C949A
:101CF000B41808950F931F93CF93DF93EC0188815D
:101D00009981009759F02A813B812617370730F0D7
:101D100081E0DF91CF911F910F9108958B016F5F4B
:101D20007F4F0E943D19009759F0998388831B8348
:101D30000A832C813D81232B59F7FC011082E8CFC7
:101D400080E0E7CFEF92FF920F931F93CF93DF9343
:101D500000D0CDB7DEB78C01FC0111821082138256
:101D600012821582148270E060E00E947A0EF801FF
:101D70002081318181112FC02115310519F0C90150
:101D80000E94B418F8011182108215821482138205
:101D900012820E948E0697FD26C089831A82F8015E
:101DA000E480F580FFEFEF1AFF0AB701C8010E9437
:101DB0007A0E882371F3F801208131818481958125
:101DC000BE016F5F7F4F820F931F0E940C1AF801B4
:101DD000F582E482DECF1582148266E574E0C901E3
:101DE0000E940C1AD6CFC8010F900F90DF91CF91AF
:101DF0001F910F91FF90EF9008956F927F928F92B5
:101E00009F92AF92BF92CF92DF92EF92FF920F9389
:101E10001F93CF93DF93CDB7DEB72B970FB6F89410
:101E2000DEBF0FBECDBF0E9452080CED13E0F801DB
:101E3000F0800E5F1F4F61E08F2D0E94310360E044
:101E40008F2D0E940303F3E00C3F1F0781F788EDFD
:101E500099E00E94690987E397E00E947B09662464
:101E60006394712C88ED99E00E94F206892BD1F3DE
:101E7000CE0101960E94A20E4D815E8169817A8118
:101E800088ED99E00E94B40588ED99E00E94690907
:101E90008D819E8101968530910508F469C045E0E9
:101EA00050E0BE01695F7F4FCE0101960E94BD08E0
:101EB0008F810E94FF07A82E88850E94FF0790E16E
:101EC000A99E50011124A82A89850E94FF07C82EC7
:101ED0008A850E94FF07E0E1CE9E60011124C82A96
:101EE0006CE477E088ED99E00E94310C60E170E0ED
:101EF000C5010E94350960E170E0C6010E94350904
:101F000088ED99E00E9469098CED882E83E0982E77
:101F100010E000E07301002E02C0EE0CFF1C0A94DA
:101F2000E2F7F4018081F2E08F0E911CB5016E2181
:101F30007F21002E02C0759567950A94E2F70E94F2
:101F40000303B6016E217F21002E02C075956795AF
:101F50000A94E2F7F40186850E9403030F5F1F4F86
:101F600008301105B9F6CE0101960E94720E7ACFA3
:101F70000397C8F343E050E0BE01695F7F4FCE0195
:101F800001960E94BD088F818F7D813561F785E5BF
:101F900097E00E947B09CE0101960E94720E2B965B
:101FA0000FB6F894DEBF0FBECDBFDF91CF911F916A
:101FB0000F91FF90EF90DF90CF90BF90AF909F90E8
:101FC0008F907F906F900895AF92BF92CF92DF92E3
:101FD000EF92FF920F931F93CF93DF93CDB7DEB7AE
:101FE000A9970FB6F894DEBF0FBECDBF0E9452086E
:101FF00088ED99E00E9469096AE577E088ED99E04B
:102000000E94310C8DE897E00E947B0967EA77E037
:1020100088ED99E00E94310C6AE070E080E190E088
:102020000E94350985EB97E00E947B0966ED77E019
:1020300088ED99E00E94310C67EF77E088ED99E038
:102040000E94310C84E098E00E947B0910E000E0DF
:102050002CEDC22E23E0D22EB12CA12CF12CE12CA0
:10206000F6018081F2E0CF0ED11C0E94DA020E2C24
:1020700001C0880F0A94EAF7A82AF60186850E9413
:10208000DA020E2C01C0880F0A94EAF7B82AFFEF93
:10209000EF1AFF0A88E0E816F10411F76CE477E024
:1020A00088ED99E00E94310C60E170E08A2D0A2CE5
:1020B000000C990B0E94350960E170E08B2D0B2C10
:1020C000000C990B0E94350988ED99E00E9469097E
:1020D00088ED99E00E94F206181619060CF06BC004
:1020E000CE0181960E94A20E8DA19EA1019603971A
:1020F00058F143E050E0BE01695D7F4FCE0181960B
:102100000E94BD088FA18F7D8135F1F485E597E0B0
:102110000E947B09CE0181960E94720E003111054A
:1021200009F071C0ECEBF3E0DE0111962CED33E029
:1021300081E02E173F0709F449C051914D9191E07C
:10214000541390E08923F5CF6BE178E088ED99E0B6
:102150000E94310C7801EE0CFF1C6AE070E0C701B0
:102160000E94350965E278E088ED99E00E94310C23
:1021700067019FEFC91AD90A6AE070E0C6010E94A0
:1021800035098AE298E00E947B090E945E02E1E044
:10219000F0E0EC0FFD1FEE0DFF1DA082E1E0F0E08E
:1021A000EC0FFD1FEC0DFD1DB0820F5F1F4FCE0128
:1021B00081960E94720E0031110509F4B3CF68EECA
:1021C00073E080E090E00E94AB0342CF882361F18E
:1021D00064E378E088ED99E00E94310C06EA13E0B0
:1021E00082E4F82EE3E00C3B1E0749F0F801619110
:1021F0008F016F2588ED99E00E94A204F3CF88ED4E
:1022000099E00E946909A9960FB6F894DEBF0FBE47
:10221000CDBFDF91CF911F910F91FF90EF90DF9095
:10222000CF90BF90AF90089581E498E00E947B0921
:10223000EACF85ED8093BC008091A8089091A90811
:10224000A091AA08B091AB080796A11DB11D23E08B
:10225000B695A795979587952A95D1F72091BC00BB
:1022600024FD03C01092F50808954091A8085091EC
:10227000A9086091AA087091AB08452B462B472B03
:1022800069F30097A105B10541F02AE22A95F1F71B
:1022900000C00197A109B109E1CF8091A7080C9472
:1022A0005E071F920F920FB60F9211242F933F9348
:1022B0008F939F93AF93BF93809135099091360987
:1022C000A0913709B09138093091240923E0230FF8
:1022D0002D3758F50196A11DB11D20932409809337
:1022E000350990933609A0933709B0933809809146
:1022F000250990912609A0912709B09128090196F6
:10230000A11DB11D8093250990932609A09327094B
:10231000B0932809BF91AF919F918F913F912F91D9
:102320000F900FBE0F901F90189526E8230F02966E
:10233000A11DB11DD2CF1F920F920FB60F92112483
:102340002F933F934F935F936F937F938F939F93BD
:10235000AF93BF93CF93EF93FF93C091E100809130
:10236000E100837F8093E100C3FF0FC01092E9007A
:1023700081E08093EB001092EC0082E38093ED000B
:1023800010923A0988E08093F000C2FF1AC00E94C0
:102390005E0280912009882341F0809120098150BC
:1023A00080932009811101C05D9A809139098823A9
:1023B00041F080913909815080933909811101C020
:1023C000289AC4FF23C08091E2008E7E81608093B2
:1023D000E2008091E1008F7E8093E10080912109ED
:1023E0008E7E806180932109FF91EF91CF91BF9103
:1023F000AF919F918F917F916F915F914F913F919D
:102400002F910F900FBE0F901F901895C0FFECCF2B
:102410008091E2008E7E80618093E2008091E100F5
:102420008E7E8093E100809121098E7E8160DACFDB
:102430001F920F920FB60F921124CF92DF92EF925C
:10244000FF920F931F932F933F934F935F936F933D
:102450007F938F939F93AF93BF93EF93FF93CF930C
:10246000DF93CDB7DEB76C97DEBFCDBF1092E9002A
:102470008091E80083FF25C068E0CE0145960E9468
:10248000950482EF8093E8008D8987FF39C0909191
:10249000E80090FFFCCF982F907609F034C19E8918
:1024A0004F89588D2F89F88C911131C0803861F592
:1024B000809122098093F1001092F1008EEF8093B9
:1024C000E8006C960FB6F894DEBF0FBECDBFDF916B
:1024D000CF91FF91EF91BF91AF919F918F917F919C
:1024E0006F915F914F913F912F911F910F91FF90AD
:1024F000EF90DF90CF900F900FBE0F901F90189528
:102500009EEF9093E800C7CF1092F100D5CF9130A5
:1025100059F48111D3CF4130510581F680912209C0
:102520008D7F80932209CACF933049F48111C6CFA1
:102530004130510519F6809122098260F2CF953021
:1025400041F48091E80080FFFCCF20682093E300F5
:10255000B5CF963009F0A9C00B8D1C8D22E01092EA
:10256000E90010921E0910921D09F2122EC010925D
:102570001C0910921B090E9464041F8299E0998330
:10258000FA8291E09E8390EA98879AEF998720914A
:102590001D0930911E09275F3F4F3C832B838D839C
:1025A0001092E90010921E0910921D0910931C0947
:1025B00000931B0949E050E0BE016F5F7F4F80E050
:1025C0000E943E040E94640479CF10931C0900937A
:1025D0001B090E947A02DC0112960D911C910115D3
:1025E000110509F451C1D801ED91FC910480F581E8
:1025F000E02DBE016B5E7F4FC8010995009709F081
:102600003EC1F80100851185EACFF3E0FF120EC04C
:102610008F89882309F440C0823061F440E860E18A
:1026200082E492E00E940B04811148CF81E2809302
:10263000EB0047CF813029F440E86BE086E392E07D
:10264000F1CF833099F70E947A02DC011296ED9067
:10265000FC908E010F5F1F4F6801E114F10479F0C7
:10266000D701ED91FC910680F781E02DB801C701FB
:102670000995080F111DF701E084F184EECFD80110
:102680001C92F60101900020E9F73197BF016C1907
:102690007D0940E0C601C6CF60E272E0FB014491D3
:1026A00050E080E80E943E0409CF973009F4BECF85
:1026B000983021F481E08093F10000CF993009F047
:1026C000FDCE837009F0B2CFE8E1F4E081E031E0C3
:1026D00096E32191222371F08093E9003093EB007F
:1026E000DF0111972C912093EC009093ED008F5F08
:1026F000873079F78EE78093EA001092EA008F899D
:1027000080933A09DBCE8B8D9C8D1092E90010925C
:102710001E0910921D0990931C0980931B09898D35
:10272000811192C08E899D89913A49F4813209F0D4
:102730007DCF47E050E064E071E080E0B3CF9132BC
:1027400009F074CF833269F48F89988DB0E0A0E0EE
:102750008093000190930101A0930201B0930301C3
:10276000ADCE803269F48091E80082FFFCCF67E053
:1027700084E091E00E9495048BEF8093E8009ECE68
:10278000823209F09BCE8F8980930B01EEEFFFE739
:10279000859194918B3F9C4D51F1E0E0F8E0809160
:1027A000040190910501A0910601B0910701803BC1
:1027B0009440A105B105F1F480910B0180FD1AC090
:1027C000EE3F8AE0F80789F587E797E791838083F2
:1027D0008091600080931F0988E19BE00FB6F89418
:1027E000A895809360000FBE9093600067CEEEEFD7
:1027F000FAE0D5CF808191818737974709F05ECE87
:10280000A8958091600088618093600080911F0985
:1028100080936000EE3F2AE0F20789F08091FE0A83
:102820009091FF0A9183808349CE8081918187377F
:10283000980751F29093FF0A8093FE0AC5CF109239
:10284000FF0A1092FE0A3ACE0E947A02DC0112962A
:102850000D911C910115110509F4E8CED801ED91F7
:10286000FC910190F081E02DBE016B5E7F4FC801AD
:102870000995811123CEF80100851185EBCF18163B
:1028800019060CF41BCED2CEF1E0FF12BECE64E2EC
:1028900072E004CF1F920F920FB60F9211242F9364
:1028A0003F934F935F936F937F938F939F93AF93D8
:1028B000BF93EF93FF938BE399E00E942705FF916D
:1028C000EF91BF91AF919F918F917F916F915F91A8
:1028D0004F913F912F910F900FBE0F901F90189521
:1028E0001F920F920FB60F9211242F938F939F93E5
:1028F000EF93FF93E0914B09F0914C098081E091B7
:102900005109F091520982FD1BC0908180915409B8
:102910008F5F8F7320915509821741F0E091540920
:10292000F0E0E55CF64F958F80935409FF91EF91AD
:102930009F918F912F910F900FBE0F901F90189520
:102940008081F4CF1F920F920FB60F9211242F9314
:102950003F934F935F936F937F938F939F93AF9327
:10296000BF93EF93FF938091B900887F803609F47D
:102970004AC0F0F5883209F4A7C018F5803109F48F
:102980009BC0B8F4882309F4F9C0883009F494C0D6
:10299000FF91EF91BF91AF919F918F917F916F9137
:1029A0005F914F913F912F910F900FBE0F901F900D
:1029B0001895883109F488C0803251F78093F40863
:1029C00014C0803409F49DC040F48033B9F38833D7
:1029D000F9F68093F40885ECB0C0803509F485C021
:1029E000883509F496C0883499F60E941911D0CF21
:1029F000883909F48CC038F5883729F050F48836C6
:102A000011F0803729F683E08093F5081092F308DF
:102A100057C0883809F47BC0803919F0803809F034
:102A2000B7CF8091F308803208F071C0E091F308CD
:102A300081E08E0F8093F3088091BB00F0E0ED52AF
:102A4000F74F80833DC0803B39F0E0F4803A09F4D1
:102A500079C0883A09F09CCF84E08093F508109201
:102A6000D0081092CF08E091CD08F091CE080995DA
:102A70008091CF0881110FC081E08093CF08109220
:102A8000AD0809C0803C09F4A6CF883C09F4A3CF67
:102A9000883B09F07DCFE091D00881E08E0F8093D4
:102AA000D008F0E0E355F74F80818093BB00909110
:102AB000D0088091CF0829C080911A098093BB006B
:102AC00085EC8093BC0064CF90911909809118091E
:102AD000981758F5E091190981E08E0F8093190934
:102AE000F0E0E850F74F8081E9CFE091190981E0EB
:102AF0008E0F809319098091BB00F0E0E850F74FEA
:102B0000808390911909809118099817C8F285E877
:102B1000D8CFE091190981E08E0F80931909809137
:102B2000BB00F0E0E850F74F80838091F7088111F7
:102B30005CCF81E08093F60884EA8093BC00109219
:102B4000F50826CF85EC8093BC001092F5088091A3
:102B5000F308803230F4E091F308F0E0ED52F74FE3
:102B600010826091F30870E0E091D108F091D208F2
:102B700083ED98E009951092F3080ACF1092F408BB
:102B800034CFEBE3F9E01382128288EE93E0A0E009
:102B9000B0E084839583A683B78322E234E0318357
:102BA00020832DEC30E0358724872CEC30E037870C
:102BB000268728EC30E0318B208B29EC30E0338BFA
:102BC000228B2AEC30E0358B248B2EEC30E0378BD7
:102BD000268B118E128E138E148EE8EDF9E013827F
:102BE000128284839583A683B78324E334E0318300
:102BF00020832FEF3FEF35872487E8E2FAE0138246
:102C0000128284839583A683B78386E494E09183BC
:102C10008083E4E3FAE0118210821482138212822C
:102C200081E69CE090934701809346010895789453
:102C300084B5826084BD84B5816084BD85B58260C1
:102C400085BD85B5816085BD80916E008160809372
:102C50006E001092810080918100826080938100DB
:102C600080918100816080938100809180008160EB
:102C70008093800080919100826080939100809188
:102C80009100816080939100809190008160809399
:102C900090008091C10084608093C1008091C10048
:102CA00082608093C1008091C10081608093C100E7
:102CB0008091C30081608093C3008091C0008260D6
:102CC0008093C0008091C20081608093C200809197
:102CD0007A00846080937A0080917A008260809389
:102CE0007A0080917A00816080937A0080917A00E6
:102CF000806880937A0010923A091092220910920B
:102D000021098091D70081608093D70080EA809369
:102D1000D80089B5806189BD89B5826089BD09B453
:102D200000FEFDCF61E070E080E090E00E94AB0328
:102D30008091D8008F7C80618093D8008091E000E2
:102D4000807F8093E0008091E1008E7E8093E1009F
:102D50008DE08093E200559A209A8FEF9FEF909339
:102D6000E5098093E40982E390E0A0E0B0E080937D
:102D7000DC099093DD09A093DE09B093DF09CCE074
:102D8000D1E008E411E0888199810E949E17813486
:102D9000910528F083E592E00E946D09FFCF25960A
:102DA0000C171D0781F78CE091E09093350A809312
:102DB000340A8CE08093360A8DE892E09093380ACA
:102DC0008093370A0E948C090E94330CD5E000E002
:102DD00010E080E1F82E88ED99E00E94F2061816C6
:102DE0001906BCF488ED99E00E947006C82F082EE1
:102DF000000C990B0E94FA19892BC1F06C2F88EDF9
:102E000099E00E9439068091230981110CC0C0937A
:102E1000230901151105F9F20E9413058823D9F23F
:102E20000E940000D8CFF0922309F3CFCA3091F06E
:102E300034F4C83009F46EC010922309EACFCD30C3
:102E400049F084E992E0CB31B9F70E946D090E9404
:102E5000330CF2CF80912309882351F1803111F195
:102E60003091360AE091340AF091350AC0E0082E1C
:102E7000000C990B3C1741F02281CF5F3596281743
:102E80001906C1F7C1110BC089EE92E00E946D09CD
:102E900088EE92E00E946D090E94330CC0E010920F
:102EA000230909C088E093E00E946D09109223096C
:102EB0000E94330CC0E062E070E080E090E00E948D
:102EC000AB0388ED99E00E94F2061816190664F427
:102ED00088ED99E00E94CE068A3011F08D3021F401
:102EE00088ED99E00E947006CC2309F492CF80917E
:102EF000360A8C1708F48DCFE091340AF091350A28
:102F0000CD9FE00DF11D112435970380F481E02D54
:102F100009957FCF80912309882309F47ACF8031E6
:102F200031F068E088ED99E00E94390685CF8AEBA0
:102F300092E00E944F0687EA92E087CFFC0105905D
:102F40000020E9F7809590958E0F9F1F0895FB0153
:102F5000DC014150504048F005900D920020C9F727
:102F600001C01D9241505040E0F7089599278827ED
:102F700008952F923F924F925F926F927F928F921D
:102F80009F92AF92BF92CF92DF92EF92FF920F93F8
:102F90001F93CF93DF93CDB7DEB7CA1BDB0B0FB602
:102FA000F894DEBF0FBECDBF09942A8839884888BF
:102FB0005F846E847D848C849B84AA84B984C88455
:102FC000DF80EE80FD800C811B81AA81B981CE0F4C
:102FD000D11D0FB6F894DEBF0FBECDBFED01089531
:102FE000A1E21A2EAA1BBB1BFD010DC0AA1FBB1F0D
:102FF000EE1FFF1FA217B307E407F50720F0A21B7F
:10300000B30BE40BF50B661F771F881F991F1A94EB
:1030100069F760957095809590959B01AC01BD0115
:10302000CF010895EE0FFF1F0590F491E02D099454
:103030000F931F93CF93DF938230910510F482E0BA
:1030400090E0E0913B0AF0913C0A30E020E0B0E0F3
:10305000A0E0309799F42115310509F44AC0281BE6
:10306000390B24303105D8F58A819B8161157105B2
:1030700089F1FB0193838283FE0111C0408151815C
:103080000281138148175907E0F04817590799F44E
:10309000109761F012960C93129713961C93329628
:1030A000CF01DF91CF911F910F91089500933B0ABB
:1030B00010933C0AF4CF2115310551F04217530704
:1030C00038F0A901DB019A01BD01DF01F801C1CF90
:1030D000EF01F9CF90933C0A80933B0ACDCFFE01DC
:1030E000E20FF31F81939193225031093983288392
:1030F000D7CF2091390A30913A0A232B41F42091FD
:103100004A0130914B0130933A0A2093390A2091B9
:103110004801309149012115310541F42DB73EB7E1
:1031200040914C0150914D01241B350BE091390A1F
:10313000F0913A0AE217F307A0F42E1B3F0B281771
:10314000390778F0AC014E5F5F4F2417350748F020
:103150004E0F5F1F50933A0A4093390A819391931F
:103160009FCFF0E0E0E09CCFCF93DF930097E9F0B2
:10317000FC01329713821282A0913B0AB0913C0A63
:10318000ED0130E020E01097A1F420813181820F21
:10319000931F2091390A30913A0A2817390709F00C
:1031A00061C0F0933A0AE093390ADF91CF91089514
:1031B000EA01CE17DF07E8F54A815B819E014115E0
:1031C0005105B1F7E901FB83EA8349915991C40F95
:1031D000D51FEC17FD0761F4808191810296840F61
:1031E000951FE90199838883828193819B838A83D8
:1031F000F0E0E0E012968D919C9113970097B9F55D
:103200002D913C911197CD010296820F931F209131
:10321000390A30913A0A2817390739F6309751F5AB
:1032200010923C0A10923B0AB0933A0AA093390AD2
:10323000BCCFD383C28340815181840F951FC817AF
:10324000D90761F44E5F5F4F88819981480F591FFC
:10325000518340838A819B81938382832115310529
:1032600009F0B0CFF0933C0AE0933B0A9ECFFD01FA
:10327000DC01C0CF13821282D7CFB0E0A0E0E3E43C
:10328000F9E10C94BB178C01009751F4CB010E941B
:1032900018188C01C801CDB7DEB7E0E10C94D71740
:1032A000FC01E60FF71F9C0122503109E217F307DA
:1032B00008F49DC0D901CD91DC911197C617D707AD
:1032C00098F0C530D10530F3CE01049786179707E3
:1032D00008F3C61BD70B2297C193D1936D937C93B0
:1032E000CF010E94B418D6CF5B01AC1ABD0A4C01C5
:1032F0008C0E9D1EA0913B0AB0913C0A512C412C92
:10330000F12CE12C109731F58091390A90913A0A0D
:103310008815990509F05CC04616570608F058C094
:103320008091480190914901009741F48DB79EB773
:1033300040914C0150914D01841B950BE817F90702
:1033400008F055C0F0933A0AE093390AF901718305
:103350006083A0CF8D919C91119712966C901297DB
:1033600013967C901397A815B90559F56C0142E0A6
:10337000C40ED11CCA14DB0420F1AC014A195B094C
:10338000DA011296159780F062827382518340832E
:10339000D9016D937C93E114F10471F0D701139678
:1033A000FC93EE93129776CF22968C0F9D1FF90116
:1033B00091838083F301EFCFF0933C0AE0933B0AC3
:1033C00069CF4816590608F42C017D01D3019ACF24
:1033D000CB010E9418187C01009749F0AE01B8019A
:1033E0000E94031AC8010E94B418870153CF10E04D
:1033F00000E050CF803209F091110C94B617805242
:103400008F55D8F70895FB01DC0102C001900D92A1
:1034100041505040D8F70895FB01DC0101900D9216
:103420000020E1F70895FB01DC014150504048F0D5
:1034300001900D920020C9F701C01D9241505040EB
:08344000E0F70895F894FFCFB6
:10344800FFFFFFFF00E1000000000000C601314E51
:103458000E8D0132A60D650133C40B4D01349B0A54
:103468003B01357D0A1F0136460D080137B70CE2CE
:103478000038D509CF0039E40FC40061FD0EB5004E
:1034880062650CAC003F000000003D0A8000171187
:10349800001D1171102B022E1D73311D16721D7126
:1034A80002311B1171302B020E1D73111D04370CD4
:1034B800637538FEED655E4246D2E3FD9EE2424208
:1034C80042424242426D42424242424242F203A1D9
:1034D800E6A6B47686D4602EF4F7547EC4A9A5CBAC
:1034E800E02595DE25333D0CB33EA9770C70BD8AE7
:1034F800AE8F6B2FBEFA2F68FC4187498E4AF216B1
:10350800B86D1FDFAD5F6F99C95E93EF21F8026A4E
:10351800D1C7F60B6429F5A3E8C51AB8CC161098DC
:1035280081D446FEE9E3E73559761AE68E50C4E3BE
:10353800CD60024FFAC2EC2D2DFDDEA8B0DE79C6B3
:10354800A53A70554A0D75E9E54C4052D27499A2D6
:103558002CBB9B7A03ECB44EAAE498F9128358D199
:10356800561A51653E136663252F7049466BC4AEE3
:10357800E9554462434BC2C242454943424366440B
:10358800B3454350114DF3E2E471242B52349F0AA2
:10359800CBACEACFA67C4E3048433EED25DB424219
:1035A800050B047A7B2312424842D34242BDBDBD7B
:1035B800424242BDBDBD42424263BB4647424240D1
:1035C800426E424242421242484242402ECECDEB27
:1035D80089AF4D4DDA900ED26C4FDA99B9379C4AC3
:1035E8001461902F50F7E71461D0ED65F8F66F2558
:1035F8007BD584F1CD48A472F79D0B4ACE570FEFC7
:1036080092001B90DE2E868D08277868DBF165B066
:10361800C7E10CFBF8EC143E6E5927091531BF07BA
:10362800FB177A8734AA1E1FA103AB7C405A6A7A1B
:103638000A8AC117CAAA55134242794242424242F3
:103648000000000000000000000000000000000072
:103658000000000000000000000000000000000062
:10366800B2B21DBDBD124D1D4D47BDBDB742B742DB
:10367800BD4D1D124D124DB2B7424D1242BD124DF5
:103688001D42B742BD4D1242B7BDBDB74212B2127C
:1036980042BD124DB2B7BD1DBDBD1D4742BD4D1D3A
:1036A800B7BDBDB74D47424247424DB742BD4D1227
:1036B8004DB2420471710E1D162A711D12723571B8
:1036C800301D72241D00732C02301B0673057336DF
:1036D80002751D0B72311D0230711D732F3272304D
:1036E80016022C361D6311731002111D7131161D3F
:1036F800172C1D110206731337711D63C383481AF3
:10370800C61081B69700F8182A7076971F050855D5
:103718006356296681B662522D97735D00000100D9
:103728000200030004000500060007000800090065
:103738000A000E000F00100012001300162A1A1DAE
:10374800731D022F1D77721D1123752B7724732784
:10375800261D0C72351D6300C18081000000000029
:1037680000004805A904D60494050705E504F904F2
:10377800000000003906B4056C066A06F2067006F9
:10378800CE0600000000CD07A007FC0776079907C2
:10379800860777070D0A004120706C757369657597
:1037A8007273206F6E2065737420746F756A6F75FD
:1037B800727320706C757320666F727420210051CB
:1037C80075616E6420766F757320C3AA7465732063
:1037D8007072C3AA74732C20617070757965722039
:1037E80073757220456E74726572004D6574657AE2
:1037F800206D6F6920746F7574206C612064656436
:10380800616E73202100417070757965722073753F
:103818007220456E7472657220706F7572207175B2
:10382800697474657220004D65726369204D61C3C7
:10383800AE74726520212121005175616E64206C7F
:1038480065206D61C3AE747265207061726C652C01
:10385800206C276573636C61766520C3A9636F75F7
:1038680074652021005175616E64206C276573634F
:103878006C61766520657374207072C3AA742C20FD
:10388800617070757965722073757220456E7472F7
:103898006572004269656E2C207175616E642076D0
:1038A8006F757320C3AA746573207072C3AA74738A
:1038B8002C20617070757965722073757220456E61
:1038C80074726572004D4F53492061206A6574C354
:1038D800A9207175656C7175652063686F736520C3
:1038E800C3A0206C27656175202E2E2E206C2761C1
:1038F8007320747520617474726170C3A9203F00CD
:1039080050757368206D6520616E64207468656EFB
:10391800206A75737420746F756368206D65005430
:10392800696C6C20492063616E20676574206D792D
:1039380000536174697366616374696F6E203A003D
:10394800436F6E6E616973207475206C612072C359
:10395800A9706F6E736520756C74696D65203F0082
:1039680050696E73203A200020696E204445433A1E
:103978002000596F75206B6E6F7720746865206121
:103988006E7377657220746F2074686520556C7447
:10399800696D617465205175657374696F6E206F08
:1039A80066204C69666520210054686520666C6154
:1039B80067206973203A00496C2065737420746F1E
:1039C8007574207365756C20737572206C61206244
:1039D800616E71756973652C20696C206E2779207A
:1039E800656E20C3A020706173200020636F6D6D29
:1039F80065206C75692E00506F7572206174747241
:103A080061706572206C652073657269616C206BEA
:103A1800696C6C657220696C2066617574206163DD
:103A28007469766572206C61207461706574746560
:103A38002067C3A9616E7465203A004130202D3E8D
:103A480020565241492026204131202D3E20464112
:103A580055580054686520666C6167206973203A80
:103A68002000547520626C7566666573204D61721E
:103A7800746F6E6920210073656E642071206F7207
:103A8800205120746F20717569742E0062797465F5
:103A980073203A20005175697400446F6E6E657228
:103AA800206C6520736861323536206465206C614E
:103AB80020636F6E636174C3A96E6174696F6E73FE
:103AC8002064657320666C616773203A00736861CF
:103AD8003235362822313A323A333A343A363A379E
:103AE8003A383A62222900456E207574696C697308
:103AF800616E742000206269747320494F206461EC
:103B08006E73206C276F726472652063726F6973BD
:103B180073616E7473004170707579657220737586
:103B28007220456E7472657220706F7572207661AE
:103B38006C6964657220006C65732032206F637451
:103B480065747300206F7520512F7120706F757226
:103B58002071756974746572203A006F63746574B6
:103B680073203A200020657420002076616C696417
:103B7800C3A9730053686174726170C3A9203A20A5
:103B880000536861207065726368C3A920212052C0
:0C3B980065636F6D6D656E63652E000047
:00000001FF
