:100000000C940A020C9432020C9432020C943202C8
:100010000C9432020C9432020C9432020C94320290
:100020000C9432020C9432020C9426110C94A311FD
:100030000C9432020C9432020C9432020C94320270
:100040000C9432020C9432020C9432020C94320260
:100050000C9432020C9432020C9432020C94DC1098
:100060000C9432020C94FB130C94D5130C943202B2
:100070000C9432020C9432020C9432020C94320230
:100080000C9432020C9432020C9432020C94320220
:100090000C942D140C9432020C9432020C94320203
:1000A0000C9432020C9432020C9432023F202D2028
:1000B00048656C700062202D20546F756368206D58
:1000C0006520210061202D2042696E636174003932
:1000D000202D204A6F756F6E7320C3A02073686156
:1000E000210038202D20456E20736F727469652CB5
:1000F000206C27756E696F6E2066616974206C6173
:1001000020666F7263652E0037202D204C652073AA
:10011000656E73206465206C61207669652E0036FB
:10012000202D20556E6520686973746F6972652093
:100130006427C3A9636F7574652E0035202D204F89
:100140007569204D61C3AE74726520210034202D85
:1001500020417070656C206D6F69206D61C3AE7455
:10016000726520210033202D204D6F736920657446
:10017000204D69736F20736F6E74207375722075D4
:100180006E20626174656175202E2E2E0032202D46
:10019000204A652063726F697320717565206E6FE8
:1001A00075732061766F6E73206166666169726532
:1001B00020C3A020756E2073657269616C206B6925
:1001C0006C6C6572210031202D20446F6E6E6520AD
:1001D0006D6F69206C6520666C6167202100080BDB
:1001E00000020202000009040000010202000005F2
:1001F000240010010524010101042402060524063F
:1002000000010705810310004009040100020A00F3
:1002100000000705020240000007058302400000BD
:100220000403090412010002EF0201404123368059
:1002300000010102030141726475696E6F204C4C2C
:10024000430041726475696E6F204C656F6E617218
:10025000646F004D6178696D756D206E756D6265B6
:1002600072206F66206368617261637465727320C7
:100270006973207265616368656420696E2061201E
:10028000636F6D6D616E642074657874004D656E8A
:1002900075203A00202D3E2063616E63656C6C61B1
:1002A00074696F6E202100202D3E2063616E6365AE
:1002B0006C6C6174696F6E202100202D3E20746F7C
:1002C0006F206D616E7920617267756D656E7473F4
:1002D000202120286F6E65206368617261637465F8
:1002E00072206F6E6C79290000202D3E204E6F2009
:1002F000636F6D6D616E6420636F6465206D617402
:100300006368696E67202100202D3E20746F6F2086
:100310006D616E7920617267756D656E74732021F1
:1003200020286F6E65206368617261637465722056
:100330006F6E6C792900070605040100080A0B0C92
:100340000D0900000000240027002A002D003000C5
:1003500000000000250028002B002E0031000000C6
:1003600000002300260029002C002F0004040404B0
:10037000040304050202020204030202020206064A
:100380000606060604040202020404040802011020
:1003900040804010204080408008020401804020BE
:1003A00010020110801020404020000000020009CF
:1003B0000F0000030401000C00000000000000001A
:1003C000000000000000000000496E746572666164
:1003D0006365206D697374616B652077697468204B
:1003E0006C6962726172792053657269616C5365E0
:1003F0007269616C4D656E75436D64004E6F204D82
:10040000656E7520696E206D656D6F7279003E00B6
:1004100000004C1511241FBECFEFDAE0DEBFCDBFC8
:100420002AE0A8E4B8E001C01D92A932B207E1F7C2
:1004300018E0A0E0B1E0EEE5F3E302C005900D9214
:10044000A834B107D9F712E0CAE0D2E004C021977E
:10045000FE010E949D17C930D107C9F70E94A2155D
:100460000C94AD190C940000FC018091260988239E
:1004700011F13FB7F89482E08093E9002091F200F7
:10048000822F90E01816190614F481E090E088237A
:1004900039F0289844E6409325094091F1004083C3
:1004A000222339F02091F200211103C02BE6209382
:1004B000E8003FBF08958FEF9FEF089583E080939A
:1004C000E9008091F200882319F08AE38093E80024
:1004D00008952FB7F89483E08093E9009091E800A5
:1004E000892F807295FF04C09091F20080E4891BEF
:1004F0002FBF08958091190981110DC082E080936A
:10050000150984E0809316091092180910921709B2
:1005100081E08093190985E199E0089581508F3039
:1005200008F047C0E82FF0E0E856FD4F0C949D1707
:10053000B502B902A702AD02B102D902D902D902AD
:10054000BC02C202C602CA02D002D902D402809101
:1005500080008F77809380000895809180008F7D48
:10056000F9CF80918000877FF5CF84B58F7784BDE8
:10057000089584B58F7DFBCF809190008F77809315
:1005800090000895809190008F7DF9CF8091900028
:10059000877FF5CF8091C0008F778093C00008954A
:1005A0008091C0008F7DF9CF8091C200877F8093BA
:1005B000C2000895CF93DF93282F30E0F901E6556C
:1005C000FC4F8491F901E557FC4FD491F901E459AE
:1005D000FC4FC491CC23A1F081110E948E02EC2F1C
:1005E000F0E0EE0FFF1FE25AFC4FA591B491EC91A1
:1005F000ED2381E090E009F480E0DF91CF91089550
:1006000080E090E0FACF1F93CF93DF93282F30E064
:10061000F901E655FC4F8491F901E557FC4FD4915F
:10062000F901E459FC4FC491CC23A9F0162F811194
:100630000E948E02EC2FF0E0EE0FFF1FE05BFC4FFC
:10064000A591B4918FB7F894EC91111108C0D09591
:10065000DE23DC938FBFDF91CF911F910895DE2BB6
:10066000F8CFCF93DF9390E0FC01E557FC4F249146
:1006700084599C4FFC0184918823D1F090E0880F2D
:10068000991FFC01EE5BFC4FA591B491FC01E05B6E
:10069000FC4FC591D49161110EC09FB7F8948C9115
:1006A000E22FE0958E238C932881E223E8839FBF7D
:1006B000DF91CF9108958FB7F894EC91E22BEC93F2
:1006C0008FBFF6CF823108F08251E82FF0E0EA5C6C
:1006D000FC4FE49190917B008E2F880F880F8072E1
:1006E0009F7D892B80937B00E770E064E0937C0022
:1006F00080917A00806480937A0080917A0086FDF0
:10070000FCCF809178009091790008953FB7F894DC
:100710008091110990911209A0911309B0911409C7
:1007200026B5A89B05C02F3F19F00196A11DB11D4C
:100730003FBFBA2FA92F982F8827BC01CD01620F88
:10074000711D811D911D42E0660F771F881F991F43
:100750004A95D1F708958F929F92AF92BF92CF9210
:10076000DF92EF92FF924B015C010E9486036B01C6
:100770007C010E9486036C197D098E099F09683EE1
:10078000734081059105A8F321E0821A9108A10820
:10079000B10888EEC80E83E0D81EE11CF11C81145C
:1007A0009104A104B10429F7FF90EF90DF90CF905E
:1007B000BF90AF909F908F900895409109095091FC
:1007C0000A09209107093091080942175307B4F428
:1007D0009091E8009570E1F39091E80092FD19C0C6
:1007E0008093F1008091090990910A0901968F7315
:1007F0009927892B19F48EEF8093E80080910909DD
:1008000090910A09019690930A098093090981E061
:10081000089580E00895EF92FF920F931F93CF9376
:10082000DF93F82E192FE62E042F81E0860F880F14
:100830000E94DD0383E00E94DD03CF2DD12FEC0E5B
:10084000FD2EF11CCE15DF05B9F007FF13C0FE0128
:1008500084910E94DD03182F80E00E94DD03812334
:1008600021968111EFCFDF91CF911F910F91FF90D2
:10087000EF9008958881EDCF81E0F5CFDF92EF9280
:10088000FF920F931F93CF93DF93D82E8A01EB0132
:100890007B01E40EF51ECE15DF0559F0D7FE12C020
:1008A000FE0184910E94DD0321968111F4CF0FEFA8
:1008B0001FEFC801DF91CF911F910F91FF90EF9033
:1008C000DF9008958881EECF0F931F93CF93DF932E
:1008D0001F92CDB7DEB782E0898342E450E06EED2F
:1008E00071E080E80E943E040E947A02DC011296C8
:1008F0000D911C910115110589F0D801ED91FC9124
:100900000280F381E02DBE016F5F7F4FC801099522
:1009100097FD04C0F80100851185ECCF89810F9007
:10092000DF91CF911F910F910895615030F0209188
:10093000F100FC0120830196F8CF289884E680938B
:1009400025090895DC01ED91FC910190F081E02DE5
:100950000994AF92BF92CF92DF92EF92FF920F93E2
:100960001F93CF93DF936C017B018B01040F151F45
:10097000EB015E01AE18BF08C017D10759F06991AD
:10098000D601ED91FC910190F081E02DC601099511
:10099000892B79F7C501DF91CF911F910F91FF90BE
:1009A000EF90DF90CF90BF90AF900895FC01538DF2
:1009B000448D252F30E0842F90E0821B930B541739
:1009C00010F0CF96089501970895FC01918D828DC6
:1009D000981761F0A28DAE0FBF2FB11D5D968C915F
:1009E000928D9F5F9F73928F90E008958FEF9FEF9E
:1009F0000895FC01918D828D981731F0828DE80F5A
:100A0000F11D858D90E008958FEF9FEF0895FC0113
:100A1000918D228D892F90E0805C9F4F821B9109E0
:100A20008F739927089587E299E00E94070521E0D6
:100A3000892B09F420E0822F089580E090E0892B33
:100A400029F00E94130581110C9400000895FC0107
:100A5000A48DA80FB92FB11DA35ABF4F2C91848D1F
:100A600090E001968F739927848FA689B7892C937C
:100A7000A089B1898C9182748C93938D848D981305
:100A800006C00288F389E02D80818F7D80830895E0
:100A9000EF92FF920F931F93CF93DF93EC0181E0CE
:100AA000888F9B8D8C8D981319C0E889F989808176
:100AB00085FF14C09FB7F894EE89FF896083E889A9
:100AC000F9898081827480839FBF81E090E0DF910B
:100AD000CF911F910F91FF90EF900895F62E0B8DFF
:100AE00010E00F5F1F4F0F731127E02E8C8D8E11BA
:100AF0000CC00FB607FCFACFE889F989808185FF21
:100B0000F5CFCE010E942705F1CFEB8DEC0FFD2F25
:100B1000F11DE35AFF4FF0829FB7F8940B8FEA89DB
:100B2000FB8980818062CFCFCF93DF93EC01888DEA
:100B30008823B9F0AA89BB89E889F9898C9185FD58
:100B400003C0808186FD0DC00FB607FCF7CF8C91E6
:100B500085FFF2CF808185FFEDCFCE010E94270572
:100B6000E9CFDF91CF9108958F929F92AF92BF927C
:100B7000CF92DF92EF92FF920F931F93CF93DF9369
:100B80006C017B018A0180910B01882309F45CC010
:100B900080912609882309F457C080910D0980FFB0
:100BA00005C08091E00082608093E000E801B12CF4
:100BB0008AEFA82E93E0892E2AE3922E209711F433
:100BC000BB20D9F10E94690281110AC0AA94AA200F
:100BD000D9F161E070E080E090E00E94AB03EECFDD
:100BE0008C171D0611F00CF08C2F9FB7F894809293
:100BF000E9002091E80025FD02C09FBFDFCF282F2C
:100C000030E0C21BD30BF701815020F0419140939B
:100C1000F100FACFE20EF31EBB2021F09092E80023
:100C2000B12CEBCF8091E80085FDE7CF9092E800F2
:100C3000BB24B394209709F3F3CF5D9884E68093A7
:100C40000C09101611063CF081E090E0F601938348
:100C5000828310E000E0C801DF91CF911F910F91D6
:100C6000FF90EF90DF90CF90BF90AF909F908F90CC
:100C70000895CF93DF931F92CDB7DEB76983DC0170
:100C8000ED91FC910280F381E02D41E050E0BE0146
:100C90006F5F7F4F09950F90DF91CF9108950F936C
:100CA0001F93CF93DF938C01D0E0C0E0F801EC0FED
:100CB000FD1F6491662341F084EC99E00E9439069F
:100CC000892B11F02196F2CFCE01DF91CF911F91A8
:100CD0000F9108950C945E020E94690290E00895BD
:100CE000CF93DF931F92CDB7DEB7FC018485958546
:100CF00097FD08C02FEF3FEF358724870F90DF91D6
:100D0000CF910895CE0101960E943402019719F403
:100D1000898190E0F3CF8FEF9FEFF0CF2FB7F8945A
:100D20008091210990912209A0912309B091240971
:100D30002FBF8093CC099093CD09A093CE09B09397
:100D4000CF0984EC99E00E94700697FF26C02FB768
:100D5000F8948091210990912209A0912309B091E2
:100D600024092FBF4091CC095091CD096091CE0943
:100D70007091CF09841B950BA60BB70B4091C80946
:100D80005091C9096091CA097091CB0984179507E0
:100D9000A607B707B0F28FEF9FEF08950F931F9349
:100DA000CF93DF931F92CDB7DEB78C01FC01848512
:100DB000958597FF0BC0CE0101960E9434020197E2
:100DC00071F4898190E0F80195878487F801848522
:100DD00095850F90DF91CF911F910F9108958FEF1F
:100DE0009FEFF1CFFC018485958597FD0BC09FB7E0
:100DF000F89482E08093E9008091F2009FBF90E038
:100E0000019608959FB7F89482E08093E90080915D
:100E1000F2009FBF90E008952091BB08260F332772
:100E2000331F21323105ECF42091E108FC0190E000
:100E300080E0243069F082E00895A091BB08219100
:100E4000AC014756574FA40FB52FB11D2C930196F7
:100E5000861798F38091BB08680F6093BB0880E009
:100E6000089581E00895ECEBF0E080818A7B808337
:100E700060E082E00E94030360E083E00C940303DF
:100E80001092E10881E08093E3081092E20861E0AB
:100E900082E00E94030361E083E00E940303E9EB28
:100EA000F0E080818E7F808380818D7F808388E4E5
:100EB0008093B80085E48093BC000895CF93DF93BE
:100EC00091E090939808882361F0C091B800D09188
:100ED000BA000E9433070E944007D093BA00C09323
:100EE000B800DF91CF910895089508950895E09195
:100EF000900880918F08E81730F4F0E0E159F74F3F
:100F0000808190E008958FEF9FEF08959091900871
:100F100080918F082FEF3FEF981748F4E92FF0E00A
:100F2000E159F74F208130E09F5F90939008C9010D
:100F3000089580918F0890919008891B990B0895CE
:100F4000CF92DF92EF92FF920F931F93CF93DF9395
:100F50007C01CB018A0120916E08222389F0EB01EC
:100F60006B01C40ED51ECC15DD0569F06991D70162
:100F7000ED91FC910190F081E02DC7010995F3CF2F
:100F8000642F0E940C07C801DF91CF911F910F9130
:100F9000FF90EF90DF90CF900895CF93DF931F9253
:100FA000CDB7DEB7698320916E082223F9F0209136
:100FB0009108203258F021E030E0FC013383228395
:100FC00090E080E00F90DF91CF910895809192089A
:100FD000E82FF0E0E25BF74F998190838F5F809379
:100FE00092088093910881E090E0ECCF61E0CE011F
:100FF00001960E940C07F7CF90E080E008958F7073
:101000008F3051F461E08AE00E94030369E070E0F0
:1010100080E090E00C94AB038A3041F460E00E94E1
:1010200003036FE070E080E090E0F4CF8530E9F4F6
:1010300060E08AE00E94030361E070E080E090E0FD
:101040000E94AB0361E08AE00E94030361E070E06C
:1010500080E090E00E94AB0360E08AE00E9403031E
:1010600061E070E080E090E0D5CF811109C060E0E0
:101070008AE00E94030363E070E080E090E0CACF62
:1010800008951F93CF93DF9387E299E00E94940520
:10109000E0913909F0913A0980818F7E8083E09157
:1010A0003909F0913A098081877F8083E09139097D
:1010B000F0913A0980818F778083E0913909F0912E
:1010C0003A0980818F7D8083809141098093400916
:1010D0009FB7F89480914A08882319F08150809333
:1010E0004A0880914A08811103C08CB58F7B8CBD62
:1010F0009FBF0E943307CCEDD3E01881229660E0B9
:10110000812F0E94030360E0812F0E94310383E05E
:10111000CC3ED80791F7DF91CF911F91089588E4D5
:101120008093B8001092900810928F081092920845
:10113000109291080E94400784E797E09093BA08C4
:101140008093B90885E797E09093BE088093BD0827
:1011500084E58093BA000895FB0101900020E9F72F
:101160003197AF01461B570BDC01ED91FC910280DA
:10117000F381E02D09948F929F92AF92BF920F93CB
:101180001F93CF93DF93CDB7DEB7A1970FB6F89437
:10119000DEBF0FBECDBF19A2423008F44AE08E0177
:1011A0000F5D1F4F842E912CB12CA12CA501940111
:1011B0000E947B17E62FB901CA01EA3004F5E05D11
:1011C000D801EE938D01232B242B252B79F790E06A
:1011D00080E0109729F0BD0184EC99E00E94AC08F2
:1011E000A1960FB6F894DEBF0FBECDBFDF91CF91B1
:1011F0001F910F91BF90AF909F908F900895E95CE1
:10120000DFCFCF92DF92EF92FF92CF93DF936C010B
:10121000990FEE08FF086A307105E1F44AE0F7FE25
:101220001AC06DE284EC99E00E94A204EC016627EA
:101230007727CB016C197D098E099F094AE00E942E
:10124000BB088C0F9D1FDF91CF91FF90EF90DF9037
:10125000CF900895462FC701B601DF91CF91FF903F
:10126000EF90DF90CF900C94BB0864E474E00C9492
:10127000AC08CF93DF930E944F06EC0184EC99E019
:101280000E9435098C0F9D1FDF91CF910895CF9358
:10129000DF93BC0184EC99E00E94AC08EC0184EC83
:1012A00099E00E9435098C0F9D1FDF91CF91089521
:1012B0000F931F93CF93DF93CDB7DEB7C054D109FF
:1012C0000FB6F894DEBF0FBECDBF86E494E00E9457
:1012D000470986E494E00E9447098091220A10E0C1
:1012E00005E0811114C08CEF93E00E94390989EC6C
:1012F00093E00E943909C05CDF4F0FB6F894DEBF5F
:101300000FBECDBFDF91CF911F910F9108958091B6
:10131000220A181780F7E091200AF091210A109F05
:10132000E00DF11D11246081718140E450E0CE0197
:1013300001960E943217CE0101960E9447091F5F55
:10134000E6CF9F92AF92BF92CF92DF92EF92FF9241
:101350000F931F93CF93DF930E944108CCEDD3E00E
:101360008881229661E00E94310383E0CC3ED80759
:10137000B9F784EC99E00E94350987E494E00E9473
:1013800047090E945E028FE694E00E94470984ECC0
:1013900099E00E94F206892BD1F3CCEDD3E088814D
:1013A000229661E00E94030393E0CC3ED907B9F78F
:1013B00062E370E080E090E00E94AB03CCEDD3E00C
:1013C0008881229660E00E940303E3E0CC3EDE07C2
:1013D000B9F762E370E080E090E00E94AB039BE825
:1013E000E92E93E0F92E22E4922ECC24C394D12C42
:1013F000F6EAEF16F3E0FF0609F43FC0F7010191AA
:101400007F0109258CEDA82E83E0B82ED0E0C0E046
:10141000002E000C110BF5018081F2E0AF0EB11C23
:10142000B6010C2E02C0660F771F0A94E2F7602304
:1014300071230C2E02C0759567950A94E2F70E94FD
:1014400003032196C830D10531F76AE070E080E0EF
:1014500090E00E94AB03CCEDD3E08881229660E05F
:101460000E940303E3E0CC3EDE07B9F76AE070E0D8
:1014700080E090E00E94AB03BBCFDF91CF911F9142
:101480000F91FF90EF90DF90CF90BF90AF909F9023
:1014900008950E9441080E948F0884EC99E00E9400
:1014A00035098BE994E00E94470986EB94E00E949D
:1014B000470984EC99E00E94F206892BD1F384EC71
:1014C00099E00E94350987ED94E00C9447092F922A
:1014D0003F924F925F927F928F929F92AF92BF9274
:1014E000CF92DF92EF92FF920F931F93CF93DF93F0
:1014F0000E9441080E948F0884EC99E00E943509FF
:1015000089EE94E00E9447090E945E0285E195E021
:101510000E94470984EC99E00E94F206892BD1F3DE
:10152000C0E6D2E0FF24F3948AE2E82E92E4B92EDA
:1015300022E0A22E99249A9435EE832E45EC742E47
:10154000F0926E08E0924B08109292081092910867
:101550006E0110E000E0F60161916F016B2584E1FE
:101560009AE00E94CD070F5F1F4F0032110599F7D7
:1015700010919108113208F08CC00E9486031B0163
:101580002C018091E10881115FC0A092E108F092E6
:10159000E3089092E0081092050910930409AEE464
:1015A000B8E0E4EEF8E0181392C0109206098091BA
:1015B00006098465809306098091E208813009F06C
:1015C0008AC01092E2080E9486031B012C018091C0
:1015D00006098093BB008091940890919508A09192
:1015E0009608B0919708892B8A2B8B2B99F00E9433
:1015F00086030091940810919508209196083091E7
:1016000097086219730984099509061717072807AF
:101610003907D8F18091BC0083FDD9CF7092BC000E
:101620000E9486031B012C018091E108823009F49D
:1016300055C08091E0088F3F61F18091E0088032D1
:1016400041F18091E00825C080919408909195081F
:10165000A0919608B0919708892B8A2B8B2B09F4BF
:1016600090CF0E9486032091940830919508409174
:1016700096085091970862197309840995092617ED
:1016800037074807590708F07CCF809193080E94DC
:101690005E07109292081092910810926E08A09620
:1016A000F3E0C030DF0709F04BCFDF91CF911F91FE
:1016B0000F91FF90EF90DF90CF90BF90AF909F90F1
:1016C0008F907F905F904F903F902F9008959D91C5
:1016D00091938F5F68CF8092BC00A2CF80919408D5
:1016E00090919508A0919608B0919708892B8A2B24
:1016F0008B2B09F499CF0E948603009194081091D6
:101700009508209196083091970862197309840909
:101710009509061717072807390708F085CFB5CFB1
:10172000CF930E94410861E081E10E940303CFB79B
:10173000F89480914A08811127C0EDE7F3E0849185
:10174000ECE9F3E09491E82FF0E0EE0FFF1FEE5B81
:10175000FC4FA591B491EC91E92321F461E081E182
:101760000E94030361E081E10E9431038CB5806136
:101770008CBD8CB580648CBD61E08FE00E9431032C
:1017800061E080E10E94310380914A088F5F80937D
:101790004A08CFBF8CB583608CBD8DB58E7F8DBD63
:1017A00084EC99E00E9435090E945E0283E495E092
:1017B0000E94470984EC99E00E94F206892BD1F33C
:1017C00085E795E00E94470960E081E10E940303FC
:1017D000E1E7F1E092E482E0E036F80749F0819138
:1017E00089278EBD00000DB407FEFDCF8EB5F3CF67
:1017F00061E081E1CF910C9403030C94AC08CF938A
:10180000DF93CDB7DEB7C054D1090FB6F894DEBF71
:101810000FBECDBF80E194E00E9439096091230A98
:101820007091240A40E450E0CE0101960E943217E4
:10183000BE016F5F7F4F84EC99E00E94FD0B8EE04C
:1018400094E00E944F06C05CDF4F0FB6F894DEBFF5
:101850000FBECDBFDF91CF9108950E9458090C941F
:10186000FF0B1F93CF93DF930E94410884EC99E014
:101870000E94350985E10E94620390934D08809390
:101880004C0880EB95E00E9447098FEC95E00E94A0
:10189000470980914C0890914D0845978F3D9140A4
:1018A00070F0CCEED3E012E484E0C730D80739F111
:1018B0006991612784EC99E00E94A204F5CF85E14B
:1018C0000E94620390934D0880934C0861EE75E08E
:1018D00084EC99E00E94FD0B6AE070E080914C0876
:1018E00090914D080E94010984EC99E00E9435090D
:1018F00068EE73E080E090E00E94AB03CACFDF9116
:10190000CF911F910895AF92BF92CF92DF92EF9245
:10191000FF920F931F93CF93DF930E944108CCED6A
:10192000D3E08881229660E00E94310383E0CC3EC0
:10193000D807B9F784EC99E00E94350980EF95E06B
:101940000E944709D0E0C0E060E176E084EC99E0D5
:101950000E94FD0B8CEDA82E83E0B82E10E000E075
:10196000F12CE12CF5018081F2E0AF0EB11C0E9458
:10197000DA026C016AE070E00E9401090E2C02C0DC
:10198000CC0CDD1C0A94E2F70C291D298FEFE81A14
:10199000F80A98E0E916F10429F768E176E084ECAA
:1019A00099E00E94FD0B6AE070E0C8010E94010905
:1019B00084EC99E00E94350921960A32110511F054
:1019C000D0E0C0E068EE73E080E090E00E94AB03FE
:1019D000C530D10509F0B8CF82E296E00E944709F0
:1019E00069E576E084EC99E00E94FD0BC3E7D3E063
:1019F00012E4E3E0CB38DE0739F06991612784EC2B
:101A000099E00E94A204F5CF84EC99E0DF91CF9198
:101A10001F910F91FF90EF90DF90CF90BF90AF900C
:101A20000C943509EF92FF920F931F93CF93DF939E
:101A30000E94410861E080E00E94310384EC99E05B
:101A40000E94350967E676E084EC99E00E94FD0B80
:101A50006AE070E08AE090E00E9401098BE996E07C
:101A60000E944709C5E0D0E08FE00E94FF0780E0B8
:101A70000E94FF072197C1F78AE00E94FF078AE0D2
:101A80000E94FF0700E213E083E7E82E83E0F82ED0
:101A9000D2E4E016F10679F0F801C1918F01CD276B
:101AA0008C2F85958595859585950E94FF078C2FB0
:101AB0000E94FF07EECF8AE00E94FF078AE00E94A3
:101AC000FF07C5E0D0E08FE00E94FF0780E00E94A2
:101AD000FF072197C1F7DF91CF911F910F91FF90E1
:101AE000EF9008951F93CF93DF930E944108E091F8
:101AF0003709F091380982E08083E0913309F09151
:101B000034091082E0913509F091360983E380832E
:101B100010923F09E0913B09F0913C0986E08083F7
:101B2000E0913909F0913A09808180618083E091E8
:101B30003909F0913A09808188608083E091390900
:101B4000F0913A09808180688083E0913909F091B1
:101B50003A0980818F7D808382E10E9462039093A5
:101B60004D0880934C0883E10E94620390934908DA
:101B70008093480884EC99E00E94350987EA96E052
:101B80000E9447098BEE96E00E94470980914C081D
:101B900090914D08883E934034F080914808909190
:101BA000490845977CF082E10E94620390934D08BA
:101BB00080934C0883E10E946203909349088093CC
:101BC0004808E4CF0E945E0283E495E00E94470942
:101BD00084EC99E00E94F206892BD1F380914C08A5
:101BE00090914D08893E9340F4F08091480890917F
:101BF00049084497C4F463E077E087E299E00E94E3
:101C0000FD0BC3E6D1E012E481E0C137D80739F01B
:101C10006991612787E299E00E94A204F5CF87E2EB
:101C200099E00E94350982E197E0DF91CF911F9101
:101C30000C9447091F93CF93DF930E94410884ECD3
:101C400099E00E94350963E077E084EC99E00E9416
:101C5000FD0BCEE4D1E012E481E0C336D80739F0C1
:101C60006991612784EC99E00E94A204F5CF84EC8D
:101C700099E0DF91CF911F910C943509FC0180818F
:101C80009181009711F00C943F1808950F931F93C2
:101C9000CF93DF93EC0188819981009759F02A81D5
:101CA0003B812617370730F081E0DF91CF911F91FC
:101CB0000F9108958B016F5F7F4F0E94C8180097A6
:101CC00059F0998388831B830A832C813D81232BC0
:101CD00059F7FC011082E8CF80E0E7CFEF92FF9246
:101CE0000F931F93CF93DF9300D0CDB7DEB78C0156
:101CF000FC0111821082138212821582148270E01C
:101D000060E00E94460EF8012081318181112FC0D0
:101D10002115310519F0C9010E943F18F8011182FF
:101D2000108215821482138212820E948E0697FD01
:101D300026C089831A82F801E480F580FFEFEF1A4C
:101D4000FF0AB701C8010E94460E882371F3F8010B
:101D50002081318184819581BE016F5F7F4F820F29
:101D6000931F0E949719F801F582E482DECF158255
:101D7000148266E474E0C9010E949719D6CFC801A5
:101D80000F900F90DF91CF911F910F91FF90EF90E7
:101D9000089585ED8093BC008091940890919508FA
:101DA000A0919608B09197080796A11DB11D23E058
:101DB000B695A795979587952A95D1F72091BC0060
:101DC00024FD03C01092E1080895409194085091B9
:101DD00095086091960870919708452B462B472BE4
:101DE00069F30097A105B10541F02AE22A95F1F7C0
:101DF00000C00197A109B109E1CF809193080C942B
:101E00005E07AF92BF92CF92DF92FF920F931F9324
:101E1000CF93DF93CDB7DEB7A9970FB6F894DEBFA7
:101E20000FBECDBF0E94410884EC99E00E943509A5
:101E300067E277E084EC99E00E94FD0B8AE597E089
:101E40000E94470964E777E084EC99E00E94FD0B6B
:101E50006AE070E088E090E00E94010982E897E083
:101E60000E94470963EA77E084EC99E00E94FD0B49
:101E700064EC77E084EC99E00E94FD0B8CEC97E039
:101E80000E94470910E000E02CEDA22E23E0B22EC4
:101E9000F12CD12CC12CF5018081F2E0AF0EB11CE8
:101EA0000E94DA020C2C01C0880F0A94EAF7F82A83
:101EB0008FEFC81AD80A98E0C916D10461F763EE0B
:101EC00077E084EC99E00E94FD0B60E170E08F2DDB
:101ED0000F2C000C990B0E94010984EC99E00E94E0
:101EE000350984EC99E00E94F206181619060CF0E8
:101EF00050C0CE0181960E946E0E8DA19EA10196CA
:101F0000039748F169A17AA142E050E0CE0187969B
:101F10000E949E1919A68FA18F7D8135E1F48CEE68
:101F200097E00E944709CE0181960E943E0E003143
:101F3000110509F058C0ECEBF3E0DE01119681E0E9
:101F400093E0EC3DF90779F131912D9191E0321355
:101F500090E08923F5CF61EF77E084EC99E00E946F
:101F6000FD0B6AE070E0C8010E9401098AEF97E06A
:101F70000E9447090E945E02E1E0F0E0EC0FFD1FC5
:101F8000E00FF11FF0820F5F1F4FCE0181960E947C
:101F90003E0E0031110579F268EE73E080E090E0CA
:101FA0000E94AB0371CF882371F163E078E084EC89
:101FB00099E00E94FD0B06EA13E08CEBC82E83E04B
:101FC000D82E92E4F92EC016D10649F0F80161919D
:101FD0008F016F2584EC99E00E94A204F4CF84EC79
:101FE00099E00E943509A9960FB6F894DEBF0FBE9E
:101FF000CDBFDF91CF911F910F91FF90DF90CF90D8
:10200000BF90AF90089580E198E00E944709EBCF20
:10201000AF92BF92CF92DF92EF92FF920F931F93F6
:10202000CF93DF93CDB7DEB729970FB6F894DEBF15
:102030000FBECDBF0E9441082CEEC22E23E0D22E4F
:102040000CED13E0F801F0800E5F1F4F61E08F2D63
:102050000E94310360E08F2D0E940303C016D10659
:1020600089F784EC99E00E9435098AE298E00E94A1
:102070004709EE24E394F12C84EC99E00E94F206E7
:10208000892BD1F3CE0101960E946E0E4D815E81A7
:1020900069817A8184EC99E00E94B40584EC99E02E
:1020A0000E9435098D819E810196039708F467C0CF
:1020B00069817A8142E050E0CE0107960E949E1924
:1020C00019860F81802F8F7D8135C9F48CEE97E0C2
:1020D0000E944709CE0101960E943E0E29960FB636
:1020E000F894DEBF0FBECDBFDF91CF911F910F914E
:1020F000FF90EF90DF90CF90BF90AF9008958FE961
:10210000800F863008F040C00755F0E10F9F800136
:10211000112488859FE9980F963008F041C08755B3
:10212000082B6FE378E084EC99E00E94FD0B60E1FE
:1021300070E0C8010E9401098CEDA82E83E0B82E42
:10214000D12CC12CF5018081F2E0AF0EB11CB7019A
:102150000C2C02C0660F771F0A94E2F760237123EC
:102160000C2C02C0759567950A94E2F70E94030350
:102170008FEFC81AD80A98E0C916D10419F7CE0112
:1021800001960E943E0E78CF8FEB800F863010F4C0
:102190000753BBCF00530A3008F4B7CF00E0B5CFE8
:1021A0009FEB980F963010F48753BACF80538A3044
:1021B00008F4B6CF80E0B4CF1F920F920FB60F9203
:1021C00011242F933F938F939F93AF93BF9380914D
:1021D000210990912209A0912309B09124093091FD
:1021E000100923E0230F2D3758F50196A11DB11DCD
:1021F000209310098093210990932209A093230929
:10220000B09324098091110990911209A0911309AA
:10221000B09114090196A11DB11D809311099093ED
:102220001209A0931309B0931409BF91AF919F9124
:102230008F913F912F910F900FBE0F901F90189587
:1022400026E8230F0296A11DB11DD2CF1F920F9237
:102250000FB60F9211242F933F934F935F936F9379
:102260007F938F939F93AF93BF93CF93EF93FF93FE
:10227000C091E1008091E100837F8093E100C3FF82
:102280000FC01092E90081E08093EB001092EC0007
:1022900082E38093ED001092260988E08093F0009D
:1022A000C2FF1AC00E945E0280910C09882341F08F
:1022B00080910C09815080930C09811101C05D9AB5
:1022C00080912509882341F08091250981508093D0
:1022D0002509811101C0289AC4FF23C08091E20022
:1022E0008E7E81608093E2008091E1008F7E8093FA
:1022F000E10080910D098E7E806180930D09FF9130
:10230000EF91CF91BF91AF919F918F917F916F91FD
:102310005F914F913F912F910F900FBE0F901F90A3
:102320001895C0FFECCF8091E2008E7E8061809393
:10233000E2008091E1008E7E8093E10080910D09A2
:102340008E7E8160DACF1F920F920FB60F9211240A
:10235000CF92DF92EF92FF920F931F932F933F93B1
:102360004F935F936F937F938F939F93AF93BF939D
:10237000EF93FF93CF93DF93CDB7DEB76C97DEBFBC
:10238000CDBF1092E9008091E80083FF25C068E08E
:10239000CE0145960E94950482EF8093E8008D89D6
:1023A00087FF39C09091E80090FFFCCF982F90767E
:1023B00009F034C19E894F89588D2F89F88C91116D
:1023C00031C0803861F580910E098093F100109240
:1023D000F1008EEF8093E8006C960FB6F894DEBFA4
:1023E0000FBECDBFDF91CF91FF91EF91BF91AF9124
:1023F0009F918F917F916F915F914F913F912F911D
:102400001F910F91FF90EF90DF90CF900F900FBE34
:102410000F901F9018959EEF9093E800C7CF1092F1
:10242000F100D5CF913059F48111D3CF413051050E
:1024300081F680910E098D7F80930E09CACF93306B
:1024400049F48111C6CF4130510519F680910E092A
:102450008260F2CF953041F48091E80080FFFCCF9C
:1024600020682093E300B5CF963009F0A9C00B8D0A
:102470001C8D22E01092E90010920A0910920909BD
:10248000F2122EC010920809109207090E946404EB
:102490001F8299E09983FA8291E09E8390EA98875F
:1024A0009AEF99872091090930910A09275F3F4FD8
:1024B0003C832B838D831092E90010920A091092BD
:1024C0000909109308090093070949E050E0BE018B
:1024D0006F5F7F4F80E00E943E040E94640479CFCA
:1024E00010930809009307090E947A02DC011296F2
:1024F0000D911C910115110509F451C1D801ED91FF
:10250000FC910480F581E02DBE016B5E7F4FC80118
:102510000995009709F03EC1F80100851185EACFC1
:10252000F3E0FF120EC08F89882309F440C0823087
:1025300061F440E860E182E492E00E940B048111C2
:1025400048CF81E28093EB0047CF813029F440E807
:102550006BE086E392E0F1CF833099F70E947A0234
:10256000DC011296ED90FC908E010F5F1F4F680109
:10257000E114F10479F0D701ED91FC910680F78127
:10258000E02DB801C7010995080F111DF701E0847E
:10259000F184EECFD8011C92F60101900020E9F7FA
:1025A0003197BF016C197D0940E0C601C6CF60E2DA
:1025B00072E0FB01449150E080E80E943E0409CFA4
:1025C000973009F4BECF983021F481E08093F10078
:1025D00000CF993009F0FDCE837009F0B2CFE8E06A
:1025E000F4E081E031E096E32191222371F08093C1
:1025F000E9003093EB00DF0111972C912093EC0060
:102600009093ED008F5F873079F78EE78093EA0033
:102610001092EA008F8980932609DBCE8B8D9C8DEA
:102620001092E90010920A09109209099093080982
:1026300080930709898D811192C08E899D89913A75
:1026400049F4813209F07DCF47E050E064E071E069
:1026500080E0B3CF913209F074CF833269F48F896F
:10266000988DB0E0A0E08093000190930101A093C9
:102670000201B0930301ADCE803269F48091E8008D
:1026800082FFFCCF67E084E091E00E9495048BEF2D
:102690008093E8009ECE823209F09BCE8F89809392
:1026A0000B01EEEFFFE7859194918B3F9C4D51F12B
:1026B000E0E0F8E08091040190910501A09106010D
:1026C000B0910701803B9440A105B105F1F48091E0
:1026D0000B0180FD1AC0EE3F8AE0F80789F587E715
:1026E00097E7918380838091600080930B0988E154
:1026F0009BE00FB6F894A895809360000FBE90936E
:10270000600067CEEEEFFAE0D5CF80819181873708
:10271000974709F05ECEA89580916000886180930C
:10272000600080910B0980936000EE3F2AE0F20781
:1027300089F08091FE0A9091FF0A9183808349CEAF
:10274000808191818737980751F29093FF0A809397
:10275000FE0AC5CF1092FF0A1092FE0A3ACE0E94DE
:102760007A02DC0112960D911C910115110509F4F4
:10277000E8CED801ED91FC910190F081E02DBE01F1
:102780006B5E7F4FC8010995811123CEF80100854A
:102790001185EBCF181619060CF41BCED2CEF1E042
:1027A000FF12BECE64E272E004CF1F920F920FB60A
:1027B0000F9211242F933F934F935F936F937F93C7
:1027C0008F939F93AF93BF93EF93FF9387E299E02B
:1027D0000E942705FF91EF91BF91AF919F918F913B
:1027E0007F916F915F914F913F912F910F900FBE0D
:1027F0000F901F9018951F920F920FB60F921124F1
:102800002F938F939F93EF93FF93E0913709F0916C
:1028100038098081E0913D09F0913E0982FD1BC09D
:102820009081809140098F5F8F73209141098217B9
:1028300041F0E0914009F0E0E95DF64F958F80931B
:102840004009FF91EF919F918F912F910F900FBEB3
:102850000F901F9018958081F4CF1F920F920FB6A2
:102860000F9211242F933F934F935F936F937F9316
:102870008F939F93AF93BF93EF93FF938091B90092
:10288000887F803609F44AC0F0F5883209F4A7C081
:1028900018F5803109F49BC0B8F4882309F4F9C015
:1028A000883009F494C0FF91EF91BF91AF919F914F
:1028B0008F917F916F915F914F913F912F910F90E9
:1028C0000FBE0F901F901895883109F488C0803290
:1028D00051F78093E00814C0803409F49DC040F49F
:1028E0008033B9F38833F9F68093E00885ECB0C003
:1028F000803509F485C0883509F496C0883499F686
:102900000E94C90ED0CF883909F48CC038F58837B9
:1029100029F050F4883611F0803729F683E080934F
:10292000E1081092DF0857C0883809F47BC080396D
:1029300019F0803809F0B7CF8091DF08803208F0B5
:1029400071C0E091DF0881E08E0F8093DF088091F5
:10295000BB00F0E0E154F74F80833DC0803B39F08D
:10296000E0F4803A09F479C0883A09F09CCF84E019
:102970008093E1081092BC081092BB08E091B9085E
:10298000F091BA0809958091BB0881110FC081E0D0
:102990008093BB081092990809C0803C09F4A6CF27
:1029A000883C09F4A3CF883B09F07DCFE091BC08B7
:1029B00081E08E0F8093BC08F0E0E756F74F8081EE
:1029C0008093BB009091BC088091BB0829C0809186
:1029D00006098093BB0085EC8093BC0064CF909186
:1029E000050980910409981758F5E091050981E0DF
:1029F0008E0F80930509F0E0EC51F74F8081E9CF0D
:102A0000E091050981E08E0F809305098091BB005C
:102A1000F0E0EC51F74F8083909105098091040913
:102A20009817C8F285E8D8CFE091050981E08E0FAC
:102A3000809305098091BB00F0E0EC51F74F808353
:102A40008091E30881115CCF81E08093E20884EA01
:102A50008093BC001092E10826CF85EC8093BC00E7
:102A60001092E1088091DF08803230F4E091DF08B5
:102A7000F0E0E154F74F10826091DF0870E0E091E0
:102A8000BD08F091BE088FEB98E009951092DF0821
:102A90000ACF1092E00834CFE7E2F9E01382128205
:102AA00088EE93E0A0E0B0E084839583A683B783AB
:102AB00022E134E0318320832DEC30E03587248718
:102AC0002CEC30E03787268728EC30E0318B208BE8
:102AD00029EC30E0338B228B2AEC30E0358B248BD1
:102AE0002EEC30E0378B268B118E128E138E148EC7
:102AF000E4ECF9E01382128284839583A683B78382
:102B000024E234E0318320832FEF3FEF35872487A1
:102B1000E4E1FAE01382128284839583A683B7836B
:102B200086E394E091838083E0E2FAE011821082F0
:102B30001482138212828DE29CE09093470180936D
:102B400046010895789484B5826084BD84B581601F
:102B500084BD85B5826085BD85B5816085BD809168
:102B60006E00816080936E001092810080918100E0
:102B700082608093810080918100816080938100D8
:102B800080918000816080938000809191008260BC
:102B90008093910080919100816080939100809159
:102BA00090008160809390008091C1008460809348
:102BB000C1008091C10082608093C1008091C100FA
:102BC00081608093C1008091C30081608093C300C5
:102BD0008091C00082608093C0008091C2008160BB
:102BE0008093C20080917A00846080937A00809103
:102BF0007A00826080937A0080917A00816080936D
:102C00007A0080917A00806880937A001092260979
:102C100010920E0910920D098091D7008160809367
:102C2000D70080EA8093D80089B5806189BD89B5D5
:102C3000826089BD09B400FEFDCF61E070E080E0F4
:102C400090E00E94AB038091D8008F7C80618093DC
:102C5000D8008091E000807F8093E0008091E100C7
:102C60008E7E8093E1008DE08093E200559A209A59
:102C70008FEF9FEF9093D1098093D00982E390E08A
:102C8000A0E0B0E08093C8099093C909A093CA0955
:102C9000B093CB09CCE0D1E008E411E088819981C0
:102CA0000E9429178134910528F083E592E00E9463
:102CB0003909FFCF25960C171D0781F78CE091E0AD
:102CC0009093210A8093200A8CE08093220A8DE859
:102CD00092E09093240A8093230A0E9458090E944C
:102CE000FF0BD5E000E010E080E1F82E84EC99E0E5
:102CF0000E94F20618161906BCF484EC99E00E94B2
:102D00007006C82F082E000C990B0E948519892B7C
:102D1000C1F06C2F84EC99E00E94390680910F0974
:102D200081110CC0C0930F0901151105F9F20E9421
:102D300013058823D9F20E940000D8CFF0920F0922
:102D4000F3CFCA3091F034F4C83009F46EC0109259
:102D50000F09EACFCD3049F084E992E0CB31B9F7E1
:102D60000E9439090E94FF0BF2CF80910F0988233E
:102D700051F1803111F13091220AE091200AF09155
:102D8000210AC0E0082E000C990B3C1741F022816B
:102D9000CF5F359628171906C1F7C1110BC089EE10
:102DA00092E00E94390988EE92E00E9439090E945F
:102DB000FF0BC0E010920F0909C088E093E00E9469
:102DC000390910920F090E94FF0BC0E062E070E029
:102DD00080E090E00E94AB0384EC99E00E94F20650
:102DE0001816190664F484EC99E00E94CE068A3025
:102DF00011F08D3021F484EC99E00E947006CC2310
:102E000009F492CF8091220A8C1708F48DCFE091BB
:102E1000200AF091210ACD9FE00DF11D1124359774
:102E20000380F481E02D09957FCF80910F098823DD
:102E300009F47ACF803131F068E084EC99E00E94A7
:102E4000390685CF8AEB92E00E944F0687EA92E02E
:102E500087CFFC0105900020E9F7809590958E0FB3
:102E60009F1F0895FB01DC014150504048F0059040
:102E70000D920020C9F701C01D9241505040E0F76B
:102E800008959927882708952F923F924F925F9235
:102E90006F927F928F929F92AF92BF92CF92DF926A
:102EA000EF92FF920F931F93CF93DF93CDB7DEB7CF
:102EB000CA1BDB0B0FB6F894DEBF0FBECDBF099463
:102EC0002A88398848885F846E847D848C849B84BA
:102ED000AA84B984C884DF80EE80FD800C811B81C8
:102EE000AA81B981CE0FD11D0FB6F894DEBF0FBEF7
:102EF000CDBFED010895A1E21A2EAA1BBB1BFD0157
:102F00000DC0AA1FBB1FEE1FFF1FA217B307E407C8
:102F1000F50720F0A21BB30BE40BF50B661F771F20
:102F2000881F991F1A9469F7609570958095909500
:102F30009B01AC01BD01CF010895EE0FFF1F05906D
:102F4000F491E02D09940F931F93CF93DF93823078
:102F5000910510F482E090E0E091270AF091280AB0
:102F600030E020E0B0E0A0E0309799F42115310581
:102F700009F44AC0281B390B24303105D8F58A8161
:102F80009B816115710589F1FB0193838283FE01A9
:102F900011C0408151810281138148175907E0F027
:102FA0004817590799F4109761F012960C931297ED
:102FB00013961C933296CF01DF91CF911F910F9101
:102FC00008950093270A1093280AF4CF211531059C
:102FD00051F04217530738F0A901DB019A01BD01F6
:102FE000DF01F801C1CFEF01F9CF9093280A809358
:102FF000270ACDCFFE01E20FF31F81939193225058
:10300000310939832883D7CF2091250A3091260AA8
:10301000232B41F420914A0130914B013093260A31
:103020002093250A2091480130914901211531054D
:1030300041F42DB73EB740914C0150914D01241BF6
:10304000350BE091250AF091260AE217F307A0F468
:103050002E1B3F0B2817390778F0AC014E5F5F4FEE
:103060002417350748F04E0F5F1F5093260A4093F0
:10307000250A819391939FCFF0E0E0E09CCFCF931E
:10308000DF930097E9F0FC01329713821282A0913E
:10309000270AB091280AED0130E020E01097A1F452
:1030A00020813181820F931F2091250A3091260AB9
:1030B0002817390709F061C0F093260AE093250A22
:1030C000DF91CF910895EA01CE17DF07E8F54A8135
:1030D0005B819E0141155105B1F7E901FB83EA834C
:1030E00049915991C40FD51FEC17FD0761F48081F8
:1030F00091810296840F951FE901998388838281CB
:1031000093819B838A83F0E0E0E012968D919C91FD
:1031100013970097B9F52D913C911197CD01029627
:10312000820F931F2091250A3091260A281739070C
:1031300039F6309751F51092280A1092270AB09369
:10314000260AA093250ABCCFD383C2834081518134
:10315000840F951FC817D90761F44E5F5F4F8881B0
:103160009981480F591F518340838A819B819383A2
:1031700082832115310509F0B0CFF093280AE0933E
:10318000270A9ECFFD01DC01C0CF13821282D7CF68
:10319000B0E0A0E0EEECF8E10C9446178C0100974B
:1031A00051F4CB010E94A3178C01C801CDB7DEB743
:1031B000E0E10C946217FC01E60FF71F9C0122501E
:1031C0003109E217F30708F49DC0D901CD91DC91D4
:1031D0001197C617D70798F0C530D10530F3CE0147
:1031E00004978617970708F3C61BD70B2297C1933E
:1031F000D1936D937C93CF010E943F18D6CF5B0192
:10320000AC1ABD0A4C018C0E9D1EA091270AB091EC
:10321000280A512C412CF12CE12C109731F580918A
:10322000250A9091260A8815990509F05CC0461672
:10323000570608F058C080914801909149010097C5
:1032400041F48DB79EB740914C0150914D01841BC4
:10325000950BE817F90708F055C0F093260AE0939C
:10326000250AF90171836083A0CF8D919C911197FC
:1032700012966C90129713967C901397A815B90527
:1032800059F56C0142E0C40ED11CCA14DB0420F1D4
:10329000AC014A195B09DA011296159780F0628237
:1032A000738251834083D9016D937C93E114F104BF
:1032B00071F0D7011396FC93EE93129776CF229676
:1032C0008C0F9D1FF90191838083F301EFCFF09361
:1032D000280AE093270A69CF4816590608F42C01FA
:1032E0007D01D3019ACFCB010E94A3177C010097E7
:1032F00049F0AE01B8010E948E19C8010E943F1822
:10330000870153CF10E000E050CF803209F09111D7
:103310000C94411780528F55D8F70895FB01DC01BA
:1033200002C001900D9241505040D8F70895FB0122
:10333000DC0101900D920020E1F70895FB01DC0112
:103340004150504048F001900D920020C9F701C053
:0E3350001D9241505040E0F70895F894FFCFD1
:10335E00FFFFFFFF00E1000000000000C601311A70
:10336E000E8D0132720D650133900B4D0134670ADB
:10337E003B0135490A1F0136120D080137830CE255
:10338E000038A109CF0039010FC400610810B50043
:10339E0062310CAC003F00000000290A80001711BA
:1033AE00001D1171102B022E1D73311D16721D7111
:1033BE0002311B1171302B020E1D73111D04370CBF
:1033CE00637538FEED655E4246D2E3FD9EE24242F3
:1033DE0042424242426D42424242424242F203A1C4
:1033EE00E6A6B47686D4602EF4F7547EC4A9A5CB97
:1033FE00E02595DE25333D0CB33EA9770C70BD8AD2
:10340E00AE8F6B2FBEFA2F68FC4187498E4AF2169B
:10341E00B86D1FDFAD5F6F99C95E93EF21F8026A39
:10342E00D1C7F60B6429F5A3E8C51AB8CC161098C7
:10343E0081D446FEE9E3E73559761AE68E50C4E3A9
:10344E00CD60024FFAC2EC2D2DFDDEA8B0DE79C69E
:10345E00A53A70554A0D75E9E54C4052D27499A2C1
:10346E002CBB9B7A03ECB44EAAE498F9128358D184
:10347E00561A51653E136663252F7049466BC4AECE
:10348E00E9554462434BC2C24245494342436644F6
:10349E00B3454350114DF3E2E471242B52349F0A8D
:1034AE00CBACEACFA67C4E3048433EED25DB424204
:1034BE00050B047A7B2312424842D34242BDBDBD66
:1034CE00424242BDBDBD42424263BB4647424240BC
:1034DE00426E424242421242484242402ECECDEB12
:1034EE0089AF4D4DDA900ED26C4FDA99B9379C4AAE
:1034FE001461902F50F7E71461D0ED65F8F66F2543
:10350E007BD584F1CD48A472F79D0B4ACE570FEFB1
:10351E0092001B90DE2E868D08277868DBF165B051
:10352E00C7E10CFBF8EC143E6E5927091531BF07A5
:10353E00FB177A8734AA1E1FA103AB7C405A6A7A06
:10354E000A8AC117CAAA55134242794242424242DE
:10355E00000000000000000000000000000000005D
:10356E00000000000000000000000000000000004D
:10357E00B2B21DBDBD124D1D4D47BDBDB742B742C6
:10358E00BD4D1D124D124DB2B7424D1242BD124DE0
:10359E001D42B742BD4D1242B7BDBDB74212B21267
:1035AE0042BD124DB2B7BD1DBDBD1D4742BD4D1D25
:1035BE00B7BDBDB74D47424247424DB742BD4D1212
:1035CE004DB2420471710E1D162A711D12723571A3
:1035DE00301D72241D00732C02301B0673057336CA
:1035EE0002751D0B72311D0230711D732F32723038
:1035FE0016022C361D6311731002111D7131161D2A
:10360E00172C1D110206731337711D63C383481ADD
:10361E00C61081B69700F8182A7076971F050855C0
:10362E006356296681B662522D97735D00000100C4
:10363E00020012001300140009000A00162A1A1DB7
:10364E00731D022F1D77721D1123752B772473277F
:10365E00261D0C72351D6300C18081000000000024
:10366E0000004805A904D60494050705E504F904ED
:10367E00000000003906B4056C066A06F2067006F4
:10368E00CE0600000000CD07A007FC0776079907BD
:10369E00860777070D0A004120706C757369657592
:1036AE007273206F6E2065737420746F756A6F75F8
:1036BE00727320706C757320666F727420210051C6
:1036CE0075616E6420766F757320C3AA746573205E
:1036DE007072C3AA74732C20617070757965722034
:1036EE0073757220456E74726572004D6574657ADD
:1036FE00206D6F6920746F7574206C612064656431
:10370E00616E73202100417070757965722073753A
:10371E007220456E7472657220706F7572207175AD
:10372E00697474657220004D65726369204D61C3C2
:10373E00AE74726520212121005175616E64206C7A
:10374E0065206D61C3AE747265207061726C652CFC
:10375E00206C276573636C61766520C3A9636F75F2
:10376E0074652021005175616E64206C276573634A
:10377E006C61766520657374207072C3AA742C20F8
:10378E00617070757965722073757220456E7472F2
:10379E006572004269656E2C207175616E642076CB
:1037AE006F757320C3AA746573207072C3AA747385
:1037BE002C20617070757965722073757220456E5C
:1037CE0074726572004D4F53492061206A6574C34F
:1037DE00A9207175656C7175652063686F736520BE
:1037EE00C3A0206C27656175202E2E2E206C2761BC
:1037FE007320747520617474726170C3A9203F00C8
:10380E0050757368206D6520616E64207468656EF6
:10381E00206A75737420746F756368206D6500542B
:10382E00696C6C20492063616E20676574206D7928
:10383E0000536174697366616374696F6E203A0038
:10384E00436F6E6E616973207475206C612072C354
:10385E00A9706F6E736520756C74696D65203F007D
:10386E0050696E73203A200020696E204445433A19
:10387E002000596F75206B6E6F772074686520611C
:10388E006E7377657220746F2074686520556C7442
:10389E00696D617465205175657374696F6E206F03
:1038AE0066204C69666520210054686520666C614F
:1038BE0067206973203A00496C2065737420746F19
:1038CE007574207365756C20737572206C6120623F
:1038DE00616E71756973652C20696C206E27792075
:1038EE00656E20C3A020706173200020636F6D6D24
:1038FE0065206C75692E00506F757220617474723C
:10390E0061706572206C652073657269616C206BE5
:10391E00696C6C657220696C2066617574206163D8
:10392E007469766572206C6120746170657474655B
:10393E002067C3A9616E7465203A004130202D3E88
:10394E0020565241492026204131202D3E2046410D
:10395E0055580054686520666C6167206973203A7B
:10396E002000547520626C7566666573204D617219
:10397E00746F6E69202100446F6E6E6572206C65E7
:10398E0020736861323536206465206C6120636F68
:10399E006E636174C3A96E6174696F6E7320646522
:1039AE007320666C616773203A0073686132353636
:1039BE002822313A323A333A343A363A373A383AAA
:1039CE0062222900456E207574696C6973616E748C
:1039DE002000206269747320494F2064616E732049
:1039EE006C276F726472652063726F697373616E98
:1039FE00747300417070757965722073757220450D
:103A0E006E7472657220706F75722076616C696467
:103A1E00657220006C276F6374657400206F7520CB
:103A2E00512F7120706F7572207175697474657283
:103A3E00203A006279746573203A200051756974DA
:103A4E00006F63746574203A20002076616C69649F
:103A5E00C3A90053686174726170C3A9203A200033
:103A6E00536861207065726368C3A9202120526576
:103A7E00636F6D6D656E63652E0073656E64207188
:103A8E00206F72205120746F20717569742E006240
:083A9E00797465203A20000054
:00000001FF
